:100000000C94DC000C9404010C9404010C94040185
:100010000C9404010C9404010C9404010C9404014C
:100020000C9404010C9404010C94BC170C942B1830
:100030000C9404010C9404010C9404010C9404012C
:100040000C9404010C94211C0C9404010C940401E4
:100050000C9404010C9404010C9404010C94B81A3F
:100060000C9404010C9404010C9404010C940401FC
:100070000C9404010C9404010C9404010C940401EC
:100080000C945D1A0C9404010C9404010C9404016A
:100090000C94021B0C9404010C9404010C940401B4
:1000A0000C9404010C9404010C940401070605044B
:1000B0000100080A0B0C0D090000000024002700B5
:1000C0002A002D00300000000000250028002B0031
:1000D0002E003100000000002300260029002C0023
:1000E0002F000404040404030405020202020403B2
:1000F00002020202060606060606040402020204C2
:100100000404080201104080401020408040800814
:100110000204018040201002011080102040402085
:100120000000000200090F0000030401000C0000A1
:1001300000000000000000000000000000000003BC
:10014000080B000202020000090400000102020084
:100150000005240010010524010101042402060504
:100160002406000107058103100040090401000274
:100170000A00000007050202400000070583024054
:1001800000000403090412010002EF0201404123B0
:10019000368000010102030141726475696E6F20AF
:1001A0004C4C430041726475696E6F204C656F6EF4
:1001B0006172646F0000DD1C11241FBECFEFDAE016
:1001C000DEBFCDBF13E0A0E0B1E0EAEBFDE402C08A
:1001D00005900D92AE32B107D9F726E0AEE2B3E05A
:1001E00001C01D92A538B207E1F710E0CCEDD0E0D8
:1001F00004C02197FE010E94CD24CB3DD107C9F751
:100200000E94CC1D0C94DB260C940000862FE091FC
:100210004204F0914304309711F0BA010994089513
:10022000862FE0914004F0914104309711F0BA011B
:1002300009940895862FE0913E04F0913F04309791
:1002400011F0BA0109940895862FE0913C04F091D1
:100250003D04309711F0BA0109940895862FE0917A
:100260003A04F0913B04309711F0BA0109940895D3
:10027000862FE0913804F0913904309711F0BA01DB
:10028000099408950895862F642FE0914404F09115
:100290004504309711F0A90109940895E0914604AE
:1002A000F0914704309709F009940895A091CC0586
:1002B000B091CD05ED91FC9111970190F081E02D69
:1002C000682FCD010994982F2091FD0481E02132FF
:1002D00008F043C08091D9048111FCCF8091FC04C7
:1002E00032E03093D9049093D8049FEF9093D704D1
:1002F0001092D6042093D504ACEDB4E0E5EBF4E025
:1003000090E0291331C01092B4049091B404880F86
:10031000892B8093B4048091B304813049F5109205
:10032000B3048091B4048093BB008091BC0083FD32
:10033000F8CF85EC8093BC008091D9048230E1F342
:100340008091D7048F3FB1F08091D7048032A1F023
:100350008091D704803391F084E01092DB041092F6
:10036000FD041092DA0408953D9131939F5FC9CF47
:1003700085EEE0CF80E0F1CF82E0EFCF83E0EDCFFC
:100380001F93CF93DF93182FEB01809193059091EA
:1003900094056817790760F4809191059091920512
:1003A000C80FD91F188380E0DF91CF911F91089566
:1003B000E091C005F091C105309711F481E0F4CFD0
:1003C00081E0809390058091AC059091AD050995F1
:1003D0008091930590919405C817D90778F7DCCFE1
:1003E000CF93DF93EC01FB0130E020E0C901880FDF
:1003F000991F8C179D0778F44081DB014D93BD0157
:1004000011979181979599279795942B9C932F5F9E
:100410003F4F3296EBCFC901DF91CF910895FC0198
:100420008091B204882311F13FB7F89482E0809361
:10043000E9002091F200822F90E01816190614F4BA
:1004400081E090E0882339F0289844E64093B10495
:100450004091F1004083222339F02091F2002111D4
:1004600003C02BE62093E8003FBF08958FEF9FEF76
:1004700008952FB7F89483E08093E9009091E80005
:10048000892F807295FF04C09091F20080E4891B4F
:100490002FBF08958091A90481110DC082E080933F
:1004A000A50484E08093A6041092A8041092A704E7
:1004B00081E08093A90485EA94E008954091320494
:1004C0005091330420913004309131044217530786
:1004D000B4F49091E8009570E1F39091E80092FDFA
:1004E00019C08093F10080913204909133040196F9
:1004F0008F739927892B19F48EEF8093E8008091F0
:100500003204909133040196909333048093320423
:1005100081E0089580E00895EF92FF920F931F937A
:10052000CF93DF93F82E192FE62E042F81E0860F4C
:10053000880F0E945E0283E00E945E02CF2DD12FC1
:10054000EC0EFD2EF11CCE15DF05B9F007FF13C030
:10055000FE0184910E945E02182F80E00E945E02DC
:10056000812321968111EFCFDF91CF911F910F91C0
:10057000FF90EF9008958881EDCF81E0F5CFDF9275
:10058000EF92FF920F931F93CF93DF93D82E8A01A0
:10059000EB017B01E40EF51ECE15DF0559F0D7FE09
:1005A00012C0FE0184910E945E0221968111F4CF57
:1005B0000FEF1FEFC801DF91CF911F910F91FF90B7
:1005C000EF90DF9008958881EECF0F931F93CF9324
:1005D000DF931F92CDB7DEB782E0898342E450E01B
:1005E00060E471E080E80E94BF020E944A02DC01E0
:1005F00012960D911C910115110589F0D801ED910C
:10060000FC910280F381E02DBE016F5F7F4FC80136
:10061000099597FD04C0F80100851185ECCF89810B
:100620000F90DF91CF911F910F910895615030F09D
:100630002091F100FC0120830196F8CF289884E6F0
:100640008093B1040895CF93DF931F92CDB7DEB7A7
:100650006983DC01ED91FC910280F381E02D41E0A2
:1006600050E0BE016F5F7F4F09950F90DF91CF91F2
:10067000089583E08093E9008091F200882319F0C7
:100680008AE38093E80008950E94390290E008957B
:10069000CF93DF931F92CDB7DEB7FC01848595859C
:1006A00097FD08C02FEF3FEF358724870F90DF912C
:1006B000CF910895CE0101960E940F02019719F47F
:1006C000898190E0F3CF8FEF9FEFF0CF0F931F93CF
:1006D000CF93DF931F92CDB7DEB78C01FC018485E9
:1006E000958597FF0BC0CE0101960E940F020197DE
:1006F00071F4898190E0F80195878487F8018485F9
:1007000095850F90DF91CF911F910F9108958FEFF5
:100710009FEFF1CFFC018485958597FD0BC09FB7B6
:10072000F89482E08093E9008091F2009FBF90E00E
:10073000019608959FB7F89482E08093E900809134
:10074000F2009FBF90E0089581508F3008F047C0BD
:10075000E82FF0E0E255FC4F0C94CD24CB03CF03FF
:10076000BD03C303C703EF03EF03EF03D203D803B3
:10077000DC03E003E603EF03EA03809180008F7758
:10078000809380000895809180008F7DF9CF8091C3
:100790008000877FF5CF84B58F7784BD089584B5B9
:1007A0008F7DFBCF809190008F778093900008958C
:1007B000809190008F7DF9CF80919000877FF5CF59
:1007C0008091C0008F778093C00008958091C00011
:1007D0008F7DF9CF8091C200877F8093C2000895FA
:1007E000CF93DF93282F30E0F901E05EFE4F849134
:1007F000F901EF5FFE4FD491F901EE51FF4FC49123
:10080000CC23A1F081110E94A403EC2FF0E0EE0FA5
:10081000FF1FEC52FF4FA591B491EC91ED2381E0C5
:1008200090E009F480E0DF91CF91089580E090E0BE
:10083000FACF1F93CF93DF93282F30E0F901E05ECA
:10084000FE4F8491F901EF5FFE4FD491F901EE5113
:10085000FF4FC491CC23A9F0162F81110E94A4034D
:10086000EC2FF0E0EE0FFF1FEA53FF4FA591B4917C
:100870008FB7F894EC91111108C0D095DE23DC936A
:100880008FBFDF91CF911F910895DE2BF8CF90910C
:10089000000189130DC0EFE3F1E0E4919FEF909325
:1008A0000001E13059F038F0E33071F0E43091F0BC
:1008B00060E00C94190410926E00FACF90916F00D2
:1008C0009D7F90936F00F4CF909171009D7F9093E6
:1008D0007100EECF909172009F7B90937200E8CFF1
:1008E000CF93DF9390E0FC01EF5FFE4F24918E5198
:1008F0009F4FFC0184918823C9F090E0880F991FD5
:10090000FC01E854FF4FA591B491FC01EA53FF4F5D
:10091000C591D49161110DC09FB7F8948C91209529
:1009200082238C938881282328839FBFDF91CF91D6
:100930000895623051F49FB7F8943C91822F8095CE
:1009400083238C93E8812E2BEFCF8FB7F894EC9113
:100950002E2B2C938FBFEACF823108F08251E82FE3
:10096000F0E0E455FF4FE49190917B008E2F880FCB
:10097000880F80729F7D892B80937B00E770E064F5
:10098000E0937C0080917A00806480937A0080916B
:100990007A0086FDFCCF80917800909179000895CF
:1009A0003FB7F8948091250490912604A0912704E4
:1009B000B091280426B5A89B05C02F3F19F00196D9
:1009C000A11DB11D3FBFBA2FA92F982F8827BC01A9
:1009D000CD01620F711D811D911D42E0660F771FD1
:1009E000881F991F4A95D1F708958F929F92AF92D1
:1009F000BF92CF92DF92EF92FF926B017C010E9437
:100A0000D0044B015C01C114D104E104F104B9F03C
:100A10000E94D004681979098A099B09683E7340CD
:100A20008105910580F321E0C21AD108E108F1089F
:100A300088EE880E83E0981EA11CB11CE4CFFF90C5
:100A4000EF90DF90CF90BF90AF909F908F900895E0
:100A50008F929F92AF92BF92CF92DF92EF92FF92CE
:100A60000F931F93CF93DF936C017B018A018091D9
:100A70000C01882309F45CC08091B204882309F436
:100A800057C08091360480FF05C08091E0008260ED
:100A90008093E000E801B12C8AEFA82E93E0892E24
:100AA0002AE3922E209711F4BB20D9F10E9439023B
:100AB00081110AC0AA94AA20D9F161E070E080E017
:100AC00090E00E94F504EECF8C171D0611F00CF09B
:100AD0008C2F9FB7F8948092E9002091E80025FDC3
:100AE00002C09FBFDFCF282F30E0C21BD30BF7011E
:100AF000815020F041914093F100FACFE20EF31EB5
:100B0000BB2021F09092E800B12CEBCF8091E8005F
:100B100085FDE7CF9092E800BB24B394209709F3BA
:100B2000F3CF5D9884E680933504101611063CF0EF
:100B300081E090E0F6019383828310E000E0C80139
:100B4000DF91CF911F910F91FF90EF90DF90CF90A9
:100B5000BF90AF909F908F9008950F931F93CF9366
:100B6000DF93EC018B0188859985029749F4613008
:100B7000710509F436C04CF560E00115110591F1DD
:100B800088859985049749F40130110509F451C00D
:100B90009CF50115110509F43BC0888599850597D9
:100BA00009F0C5C00A30110508F0C1C0F801E552CE
:100BB000FA4F0C94CD242D063706450657066F06CE
:100BC0007106770681068F0695066230710591F0F1
:100BD00060E003301105A1F68C850E94190460E0E5
:100BE00005C061E08C850E94190461E08E850E9439
:100BF0001904C6CF61E0F0CF0230110501F10330D6
:100C0000110559F661E08C850E94190460E01CC052
:100C100061E08C850E94190460E08E850E941904B1
:100C200061E088890E94190460E08A890E941904A1
:100C3000B4CF60E08C850E94190461E0EECF60E0E3
:100C40008C850E94190461E08E850E94190460E081
:100C500088890E94190461E0E8CF60E08C850E94D9
:100C6000190461E08E850E94190461E009C060E00A
:100C70008C850E94190461E08E850E94190460E051
:100C800088890E94190460E00DC060E08C850E9494
:100C9000190461E08E850E94190460E088890E9431
:100CA000190461E08A890E94190461E011C060E0C2
:100CB0008C850E94190461E08E850E94190460E011
:100CC00088890E94190461E08A890E94190460E001
:100CD0008C89DF91CF911F910F910C94190461E0E1
:100CE000E7CF61E08C850E94190460E0E5CF61E008
:100CF0008C850E94190460E08E850E94190461E0D1
:100D0000DFCF61E08C850E94190460E08E850E942F
:100D1000190461E088890E94190460E0D5CF61E080
:100D20008C850E94190460E09DCF60E0F9CFDF91CF
:100D3000CF911F910F9108955F926F927F928F9242
:100D40009F92AF92BF92CF92DF92EF92FF920F935A
:100D50001F93CF93DF935C016901DA015C90232B31
:100D600019F4CC24CA94DC2C8A013A01660E771E51
:100D7000D0E0C0E0F12CE12C87E0882E912CF50129
:100D800080819181D8016C910C2E01C0660F0A946C
:100D9000EAF765296F77DC01ED91FC910190F08114
:100DA000E02D0995BFEFEB1AFB0AF801608170E0B6
:100DB000C4018C1B9D0B02C0759567958A95E2F75F
:100DC000562E2196C730D10558F1CE14DF0441F1DB
:100DD000D5018D919C91652D6F77DC01ED91FC9192
:100DE0000190F081E02D0995BFEFEB1AFB0A551C2D
:100DF0005524551C2797E6CFEC14FD0408F4BFCF0B
:100E0000DF91CF911F910F91FF90EF90DF90CF90E6
:100E1000BF90AF909F908F907F906F905F9008955C
:100E20000F5F1F4F6016710639F7209749F3EC14D6
:100E3000FD0430F7F5018081918161E070E001C02F
:100E4000660FCA95EAF761506521DC01ED91FC91CE
:100E50000190F081E02DDF91CF911F910F91FF90D4
:100E6000EF90DF90CF90BF90AF909F908F907F904A
:100E70006F905F9009941F93CF93DF9300D0CDB70D
:100E8000DEB7182F7A83698380918E0590918F0544
:100E90000097C9F0DC01ED91FC910190F081E02D0B
:100EA0001031B8F461157044A0F4612F606E09959B
:100EB00022E030E0AE014F5F5F4F62E070E08EE80D
:100EC00095E00E949C060F900F90DF91CF911F91AB
:100ED000089560EF099580918E0590918F05DC0152
:100EE000ED91FC910190F081E02D6FE609958091E4
:100EF0008E0590918F05DC01ED91FC910190F081C0
:100F0000E02D612F099522E030E0AE014F5F5F4F89
:100F100062E070E08EE895E00E949C0680918E056C
:100F200090918F05DC01ED91FC910190F081E02D15
:100F300067EF0995C8CFEF92FF920F931F93CF935E
:100F4000DF93C82F80918E0590918F050097C9F18E
:100F50007A018B01DC01ED91FC910190F081E02D93
:100F600060EF099580918E0590918F05DC01ED91E0
:100F7000FC910190F081E02D6C2F0995E7010E0D99
:100F80001F1DC017D10759F030E020E0AE0161E02D
:100F900070E08EE895E00E949C062196F2CF809149
:100FA0008E0590918F05DC01ED91FC910190F0810F
:100FB000E02D67EFDF91CF911F910F91FF90EF90A0
:100FC0000994DF91CF911F910F91FF90EF900895B9
:100FD000CF93DF93009729F1EC01C05CDF4F88814C
:100FE00099810097F1F0DC01ED91FC910190F08185
:100FF000E02D69EF099588819981DC01ED91FC91E3
:101000000190F081E02D62E0099588819981DC01F1
:10101000ED91FC910190F081E02D65E0DF91CF91A1
:101020000994DF91CF910895CF92DF92EF92FF92D2
:101030000F931F93CF93DF93009709F463C0FC01D4
:10104000E058FF4FE080EE2009F45CC0EC01C05C8A
:10105000DF4FA881B981109709F454C0FC01EF5704
:10106000FF4FC080D180F60111810081ED91FC918C
:1010700011970190F081E02D60EFCD0109958881F5
:101080009981DC01ED91FC910190F081E02D69E7FF
:10109000099588819981DC01ED91FC910190F081A5
:1010A000E02D602F099588819981DC01ED91FC91FB
:1010B0000190F081E02D612F0995F12C01E010E005
:1010C0000F5F1F4FE016F10659F030E020E0A60157
:1010D000400F511F61E070E0CE010E949C06F0CFEE
:1010E00088819981DC01ED91FC910190F081E02DE6
:1010F00067EFDF91CF911F910F91FF90EF90DF90FD
:10110000CF900994DF91CF911F910F91FF90EF90B5
:10111000DF90CF90089585ED8093BC008091BC0056
:1011200084FDFCCF1092D90408952091FF03260F6F
:101130003327331F21323105ECF42091D904FC010F
:1011400090E080E0243069F082E00895A091FF03F0
:101150002191AC0143525C4FA40FB52FB11D2C93CC
:101160000196861798F38091FF03680F6093FF0341
:1011700080E0089581E00895089508950895E0912C
:10118000DC038091DB03E81730F4F0E0E554FC4F1A
:10119000808190E008958FEF9FEF08959091DC0398
:1011A0008091DB032FEF3FEF981748F4E92FF0E031
:1011B000E554FC4F208130E09F5F9093DC03C90130
:1011C00008958091DB039091DC03891B990B0895AE
:1011D000CF92DF92EF92FF920F931F93CF93DF9303
:1011E0007C01CB018A012091DA04222389F0EB01F2
:1011F0006B01C40ED51ECC15DD0569F06991D701D0
:10120000ED91FC910190F081E02DC7010995F3CF9C
:10121000642F0E949508C801DF91CF911F910F9113
:10122000FF90EF90DF90CF900895CF93DF931F92C0
:10123000CDB7DEB769832091DA042223F9F020913B
:10124000FD04203258F021E030E0FC01338322839A
:1012500090E080E00F90DF91CF9108958091DB04C2
:10126000E82FF0E0E452FB4F998190838F5F8093E9
:10127000DB048093FD0481E090E0ECCF61E0CE01DF
:1012800001960E949508F7CF90E080E00895DF92E4
:10129000EF92FF920F931F93CF93DF93EC01D62E23
:1012A0007A01890188818C3008F067C061E08D2D5A
:1012B0000E9470048881282F30E0F901EE0FFF1F93
:1012C000E20FF31FE85CF94F9D2D9F736081607CF6
:1012D000692B608320E232E02E193F0937FF02C0FC
:1012E0002D5F3F4F3595279535952795298320E626
:1012F00039E0201B310B37FF02C02D5F3F4F359582
:101300002795359527952A832CE0622F0E949924F2
:10131000829FB001112430E020E0AB01420F531F47
:10132000FA01EE0FFF1FE40FF51FE85CF94F908103
:1013300096FD16C02F5F3F4F2C30310571F781119C
:101340000FC01092800082E080938100109285008F
:1013500010928400B19A80916F00826080936F0038
:10136000E8818E2F90E0FC01EE0FFF1FE80FF91FC0
:10137000E85CF94F8081806480838881DF91CF9120
:101380001F910F91FF90EF90DF900895CF938C30D5
:10139000B0F421E030E0082E02C0220F331F0A947F
:1013A000E2F74091820450918304672B51F4209519
:1013B0003095242335233093830420938204CF91E6
:1013C0000895242B352B309383042093820490912D
:1013D000B9039111F4CFC82F0E94AC04BC018C2F2B
:1013E000CF910C943B074F925F926F927F928F92B6
:1013F0009F92AF92BF92CF92DF92EF92FF920F93A4
:101400001F93CF93DF93843008F0A3C08F5FC82F62
:10141000CC0FCC0FCC0F4C2ECF3110F05EE1452E0F
:10142000D62F38EF532E5C0E852C912CC401880FDB
:10143000991F9C01225B3A4F5901052DD12CC12CDB
:1014400010E0772473940415A8F5F601E80DF91D52
:10145000EF52FA4F90819230B8F48D2F8721662495
:101460006394811101C0612C7601EE0CFF1C913058
:1014700089F4172931EAE30EF11CF501EE0DFF1D89
:10148000862D90E091838083770C0F5F8FEFC81AD1
:10149000D80AD9CF882371F3F701EF55FF4FEA0D32
:1014A000FB1D80819181019729F362E0802F0E94CA
:1014B0007004E0CF10FF05C06D2F6170852D0E9474
:1014C000190411FF06C06D2F627089EF8C0F0E9406
:1014D000190412FF06C06D2F64708AEF8C0F0E94F2
:1014E000190413FF06C06D2F68708BEF8C0F0E94DC
:1014F000190414FF06C06D2F60718CEF8C0F0E94D1
:10150000190415FF06C06D2F60728DEF8C0F0E94BD
:10151000190416FF06C06D2F60748EEF8C0F0E94A9
:10152000190417FF16C06D2F60788FEF8C0FDF91B5
:10153000CF911F910F91FF90EF90DF90CF90BF90D0
:10154000AF909F908F907F906F905F904F900C9492
:101550001904DF91CF911F910F91FF90EF90DF90D1
:10156000CF90BF90AF909F908F907F906F905F9043
:101570004F9008958F929F92AF92BF92CF92DF9239
:10158000EF92FF920F931F93CF93DF93EB018E3176
:1015900008F094C0082F10E0F801EF52FA4F908144
:1015A000933009F498C0943009F088C0F801EA56E5
:1015B000FC4FC080D12C7601EE0CFF1C4B01603239
:1015C00082E078070CF03EC0F701EC0DFD1DE35AF8
:1015D000F94F8181A8E88A2E912C881A910887FDFD
:1015E0009394880C991C880C991C092C000CAA084F
:1015F000BB08828128E532E0281B310987FD33953D
:10160000220F331F220F331F032E000C440B550BE8
:10161000281939094A095B09DB01653B710514F09A
:10162000A4EBB0E0B7FF02C0B0E0A0E00E94292424
:1016300024EB30E040E050E00E94FF23820E931E36
:10164000A41EB51EF701EC0DFD1DE35AF94F2081D4
:101650002C3068F5318188E890E0831B910937FDD3
:101660009395880F991F880F991F881699067CF00B
:10167000328188E592E0831B910937FD9395880FAD
:10168000991F880F991F881699060CF4C4010297B8
:10169000880F991F4FB7F89430E0F901EE0FFF1F44
:1016A000E20FF31FE85CF94F928381834FBF000F75
:1016B000111FF801E151FA4FD183C083DF91CF911F
:1016C0001F910F91FF90EF90DF90CF90BF90AF9060
:1016D0009F908F900895F82E83E0081759F08BEFB4
:1016E000800F823038F087EF800F833018F08DE064
:1016F0000813DDCF61E08F2D0E947004209729F43C
:1017000060E08F2D0E941904D2CFCF3FD10511F494
:1017100061E0F7CFF801E05EFE4FE491E150EF3079
:1017200008F07CC0F0E0E956F44F0C94CD24A60BF1
:10173000AB0BB00BBA0BC40B0E0C0E0C0E0CCE0B7D
:10174000D80BE20BEC0BF90B0E0C010C84B5806886
:1017500084BDC7BDACCF84B5806284BDC8BDA7CFF2
:1017600080918000806880938000D0938900C0932E
:1017700088009DCF80918000806280938000D0930C
:101780008B00C0938A0093CF809180008860809303
:101790008000D0938D00C0938C0089CF8091900001
:1017A000806880939000D0939900C09398007FCF79
:1017B00080919000806280939000D0939B00C093B2
:1017C0009A0075CF80919000886080939000D093AC
:1017D0009D00C0939C006BCF8091C0008068809377
:1017E000C0008091C0008F7B8093C000C093CF0069
:1017F0005ECF8091C00080628093C000C093D00013
:1018000056CF8091C20088608093C2008091C20050
:101810008B7F8093C200C093D20049CFC038D105DE
:101820000CF076CF6DCF8E3180F4E82FF0E0DF0141
:10183000AF52BA4F9C91913041F4EE0FFF1FE1512E
:10184000FA4F608371830C9419040895FF920F93EB
:101850001F93CF93DF9300D0CDB7DEB7082F10E0F2
:10186000F801E85BFB4F9081F62EF9220C541C4FD7
:10187000411104C0F80190819F1511F12F2D30E026
:101880003A832983A0918E05B0918F051097B1F00E
:10189000682F6F706069ED91FC9111970190F08154
:1018A000E02DCD01099522E030E0AE014F5F5F4FA2
:1018B00062E070E08EE895E00E949C06F801F082FC
:1018C0000F900F90DF91CF911F910F91FF9008958E
:1018D0000F931F93CF93DF93843008F069C0282FB4
:1018E00030E0F901E45BFB4F6083672B09F460C0D3
:1018F000082F285B3B4FF9011081D82FDD0FDD0F3A
:10190000DD0FC12FC17010FF07C08D2F0E94F003A3
:10191000C1E0892B09F4C0E011FF07C081E08D0F01
:101920000E94F003892B09F0C26012FF07C082E019
:101930008D0F0E94F003892B09F0C46013FF07C0CC
:1019400083E08D0F0E94F003892B09F0C86014FF1B
:1019500007C084E08D0F0E94F003892B09F0C0615D
:1019600015FF07C085E08D0F0E94F003892B09F059
:10197000C062D831A1F016FF07C086E08D0F0E942B
:10198000F003892B09F0C064D73149F017FF07C075
:1019900087E08D0F0E94F003892B09F0C06841E0B9
:1019A0006C2F802FDF91CF911F910F910C94260CFB
:1019B000DF91CF911F910F910895A82FB0E0AA5603
:1019C000BC4F9C91292F30E0F901EE0FFF1FE20F71
:1019D000F31FE35AF94FE0812E2F30E0F901EE0FAB
:1019E000FF1FE20FF31FE85CF94F80818F7B80833C
:1019F00080919403981308C0992319F09150909303
:101A000094038FEF8C9308958823D9F3E091950385
:101A1000EF5FE0939503F0E0EE5CFC4F9083F1CF35
:101A2000FC0101900020E9F73197BF01681B790B99
:101A3000AC0181E70C949B07CF93DF93DB0190917E
:101A400094039C3078F530919503682F70E0FB018A
:101A5000EA56FC4F3323E1F0C32FD0E0CE5CDC4FDD
:101A600088818083315030939503808123E0829F69
:101A7000C0011124835A994F1A161B0674F41416C8
:101A800015065CF49A01AD01DF91CF910C944709E2
:101A900090839F5F90939403E8CF20E639E040E283
:101AA00052E0F2CF81E491E0DF91CF910C94100DE0
:101AB000AF92BF92CF92DF92EF92FF920F931F935C
:101AC000CF93DF93C82ED12CE601C25BDA4FFE0123
:101AD000ED57FF4F90819F3709F49DC07B01182F70
:101AE000963069F48091B803882349F06630710517
:101AF00009F451C11092B8038FEF80930D011E318C
:101B000010F584E0E816F104F1F0F601EA56FC4F16
:101B100080818C30C0F490E0FC01EE0FFF1FE80FD5
:101B2000F91FE35AF94FE0818E2F90E0FC01EE0F90
:101B3000FF1FE80FF91FE85CF94F808186FF03C0A3
:101B4000812F0E94DD0C0EEE010F0C3028F561E0B4
:101B500070E032E0E316F10411F070E060E0802FF5
:101B60000E94C609E12FE695E695E695F0E0E85B70
:101B7000FB4F2081312F377081E090E001C0880F4A
:101B80003A95EAF7E114F10421F03BE0E316F104A1
:101B900029F5822B808302C01E3120F35601AA0C46
:101BA000BB1CF501E151FA4F118210828EE0E8165C
:101BB000F10408F0E2C0F701E052F24F0C94CD249A
:101BC000FF0D2B0EF10D420E630EBD0E990EBD0ED4
:101BD000B50EBD0E0B0E160EAD0EA50E8095822312
:101BE000D9CF0C30C0F460E0812F0E947004CD5733
:101BF000DF4F88818F3779F082E088830CC01E31F7
:101C000050F460E0812F0E947004CD57DF4F88812F
:101C10008F3709F01882DF91CF911F910F91FF90BC
:101C2000EF90DF90CF90BF90AF9008951E3198F75E
:101C300062E0812F0E947004CD57DF4F88818F377B
:101C400011F08BE08883F501E151FA4F81E090E0DB
:101C500091838083E0CF1E31F0F6FE01ED57FF4FF8
:101C60008081833021F460E0812F0E94190461E0BB
:101C7000812F0E947004CD57DF4F88818F3759F232
:101C800081E0BBCF133059F08BEF810F823038F0F9
:101C900087EF810F833018F01D3009F0BCCF61E071
:101CA000812F0E94700461E0812F0E94700460E027
:101CB000812F0E941904CD57DF4F88818F3709F497
:101CC000AACF83E09ACF1E3108F0A5CFCD57DF4FC2
:101CD00088818F3711F084E08883F601EA56FC4F43
:101CE00080818F3FA9F090E0FC01EE0FFF1FE80F0D
:101CF000F91FE35AF94FE0818E2F90E0FC01EE0FBF
:101D0000FF1FE80FF91FE85CF94F808186FD83CF44
:101D10004FEF5FEF6FEF7FEF812FDF91CF911F913B
:101D20000F91FF90EF90DF90CF90BF90AF900C9409
:101D30001C0D1250123008F06ECFCD57DF4F888146
:101D40008F3709F468CF86E058CFCD57DF4F8881B1
:101D50008F3709F460CF8DE050CFCD57DF4F8881AA
:101D60008F3709F458CF8CE048CFCD57DF4F8881AB
:101D70008F3709F450CF88E040CF85E591E0DF91BF
:101D8000CF911F910F91FF90EF90DF90CF90BF9078
:101D9000AF900C94100D1E3108F4B7CED4CE0F9333
:101DA0001F93CF93DF9381E08093B9038091B803B1
:101DB000882329F01092B8038FEF80930D01ECE493
:101DC000F4E0C8E4D4E0A4EBB3E0119219921D92C0
:101DD00084E0E035F807C9F706E913E0C0E0DFEF7B
:101DE0008EEE8C0F8C3088F562E070E08C2F0E94B4
:101DF000580DF801D1938F01CF5FCE3189F7109242
:101E00009C0410929B04E4E8F4E0ADE8B4E08AE8B6
:101E100094E02FE721934D915D91452B21F0ED0149
:101E20002297198218828E179F07A1F710928304B8
:101E30001092820410929503109294031092B903A9
:101E4000DF91CF911F910F9108958C2F0E9447042D
:101E5000D0CFEF92FF920F931F93CF93DF93D82FA2
:101E60008B01C42FF22E6F3F760709F488C081E002
:101E70008093DA04D093FC041092DB041092FD04EA
:101E80008CE296E00E9415098F2D0E9463018091DB
:101E90009203909193038230910538F0880F991F37
:101EA000880F991F05970197F1F78091D904811147
:101EB000FCCF9C2FC13208F090E281E08093D904DE
:101EC0008093D8042FEF2093D7041092D604290FC3
:101ED0002093D5048093B4042091B4048D2F880FEF
:101EE000822B8093B4048091B304813009F049C0FF
:101EF0001092B3048091B4048093BB008091BC0025
:101F000083FDF8CF85EC8093BC008091D9048130AB
:101F1000E1F38091D604891710F49091D604A5EBD3
:101F2000B4E0EBEBF3E080E089132DC01092DC030A
:101F30008093DB03EC2EF12C90E0E816F9063CF5DB
:101F400086E691E00E94100DD0933F03009340037A
:101F50000FE313E0C8018F5393408E159F05ECF4F7
:101F60000F5F1F4F9091DB038091DC039817A9F05E
:101F70008CE296E00E94CE08F8018183EBCF00E06E
:101F800094CF85EEC0CF2D9121938F5FCDCF8E154D
:101F90009F05D4F683E891E0D5CFCE5F6C2F70E03B
:101FA0004FE353E087E7DF91CF911F910F91FF90AF
:101FB000EF900C949B072F923F924F925F926F92FB
:101FC0007F928F929F92AF92BF92CF92DF92EF92C9
:101FD000FF920F931F93CF93DF93CDB7DEB7C45417
:101FE000D1090FB6F894DEBF0FBECDBF162F7A0110
:101FF0008D3609F4F4C208F08CC08F3509F441C362
:1020000000F5803509F41CC2813509F4E1C0CC5BD0
:10201000DF4F0FB6F894DEBF0FBECDBFDF91CF917B
:102020001F910F91FF90EF90DF90CF90BF90AF90F6
:102030009F908F907F906F905F904F903F902F90E8
:102040000895893609F40CC38B3609F465C28236CB
:10205000F1F620919B0430919C04263031050CF060
:1020600021C5DA018C918093910311969C9111976F
:10207000909390031396CC90B0E8CB9EA0011124CE
:10208000F701C280C40ED52ED11C0D2C000CEE0819
:10209000FF082C573B4FD9018C936CE070E00E94F5
:1020A000580D6CE070E0809190030E94580D8BE019
:1020B00090E00E94DA248C0120919003809191039A
:1020C000F8018083218391E0281390E0D8011296D3
:1020D0009C9361E00E94700460E0F80181810E949D
:1020E0007004D8011796CD92DD92ED92FC921A976A
:1020F00080919B0490919C04FC01EE0FFF1FE3571D
:10210000FB4F11830083019690939C0480939B0462
:102110007ECF823709F4C9C408F046C08F3609F46F
:10212000D8C1803709F073CF653008F470CFFA0159
:1021300010811E3108F06BCF0181C280D380F48002
:10214000E12FF0E0EA56FC4F80818C30C0F490E043
:10215000FC01EE0FFF1FE80FF91FE35AF94FE08172
:102160008E2F90E0FC01EE0FFF1FE80FF91FE85CD7
:10217000F94F808186FF03C0812F0E94DD0CF0E8BB
:10218000FF9EA00111244D0D511D20E8C29EB001FB
:102190001124600F711D812F0E941C0D64E070E0FE
:1021A000812F0E94580D33CF883709F4EFC08A374A
:1021B00009F46AC1863709F02ACFDA0111969C9199
:1021C000119795FF0FC08FE991E00E94100D1FCF6E
:1021D00080EF0E94560182E50E94560181E00E9434
:1021E0005601F9C1FA01808196FB332730F921E0CD
:1021F000232798719830A1F1E8F4911108CF91E06C
:102200009093DA048093FC041092DB041092FD0496
:1022100002E00117E8F4F701E00FF11D6181679515
:10222000662767958081680F8CE296E00E94150909
:102230000E5FEFCF903189F1983109F0E8CE20910F
:102240000D0112160CF45DC08FEF80930D01DFCEEF
:1022500081E00E94630183E191E00197F1F7D7CE1D
:1022600012969C91129713964C91663079F4B0E8CF
:102270004B9FB0011124690F711D4581479544277B
:1022800047959481490F0E94290FC1CE4795442755
:102290004795490F6FEF7FEFF6CFE0910D01E730E3
:1022A0001CF08FEB91E091CF12963C911297139610
:1022B0009C916630F9F4B0E89B9FA0011124430F74
:1022C000511DD70115969C9115979795992797952C
:1022D00014963C91930FEF5FE0930D01B5E0EB0294
:1022E000F0011124E65AFB4F80835283418393838C
:1022F00024838DCE979599279795930F4FEF5FEF96
:10230000EACF90E0622F022E000C770B35E0492FC8
:1023100050E06417750764F0349FF001359FF00DAD
:102320001124E65AFB4F4081481719F09F5FEFCF09
:1023300090E085E0492F50E0641775071CF1983054
:10234000F8F4FA0131968E9FD0018F9FB00D1124C1
:10235000A65ABB4F3C91849FF001859FF00D11243C
:10236000E65AFB4F308311964D915C911297528340
:10237000418313963C911397338314963C91348395
:102380009F5FD8CF215020930D0141CE623088F05D
:10239000FA018181F0E88F9F90011124DA018C917C
:1023A000820F932F911D009721F0909393038093B8
:1023B00092038091B80381112ACE10E08EEF810F35
:1023C000823028F466E070E0812F0E94580D1F5F74
:1023D0001E31A1F781E08093B8031092DC031092C4
:1023E000DB031092DB041092FD041092D904809359
:1023F000D8041092B30461E082E00E94190461E005
:1024000083E00E9419048091B9008E7F8093B90007
:102410008091B9008D7F8093B90088E48093B800E3
:1024200085E48093BC008CEB98E09093FE0380934E
:10243000FD038DEB98E09093020480930104E7CDB7
:10244000DA0111968C91B0E88B9F90011124FA016A
:102450008081820F932F911D90935904809358048B
:102460002FB7F8948091500490915104A091520498
:10247000B09153042FBF8093540490935504A093BC
:102480005604B0935704C3CD623008F4C0CDDA01CE
:1024900011968C91B0E88B9F90011124FA018081F4
:1024A000820F932F911D009789F090930F018093D5
:1024B0000E0160910E0170910F0188E290E00E9480
:1024C000A52470939E0460939D04A1CD81E090E0CB
:1024D000ECCF623008F49BCDDA0111966C91119724
:1024E00070E01230A1F012968C91B0E88B9FC00181
:1024F0001124682B792B133051F0FA01838190E07D
:1025000090E4899F902D88271124682B792BD7017F
:102510008C910E94BA0A7BCD80EF0E9456018CE616
:102520000E94560110E080E00E94560181E00E9466
:1025300056018BE00E94560181E00E94560181E025
:102540000E94560181E00E94560188E00E945601D7
:1025500081E00E9456018CE00E94560181E00E94B9
:1025600056018DE00E94560181E00E9456018EEED8
:10257000810F8C3088F482E00E9456018AE00E942C
:1025800056018BEF810F823048F087EF810F833047
:1025900028F01D3049F402C0133099F783E00E94FF
:1025A000560188E00E94560184E00E9456018EE0A8
:1025B0000E9456018EEF810F823030F486E00E9437
:1025C000560181E00E9456018FE70E9456011F5F6D
:1025D0001E3109F0A8CF87EF0E94560118CD66235F
:1025E00009F415CDFA01008180EF0E9456018EE6B4
:1025F0000E945601802F0E9456010E3160F710E0B4
:10260000F801EF52FA4F80810E945601000F111F0E
:10261000980121513A4F7901D9018C918F770E940D
:102620005601F701808191819C012078232B39F09C
:10263000880F892F881F990B8F770E945601F80108
:10264000E151FA4F808191819C012227307C232B1C
:1026500011F2990F880B990F982F881F8F77BFCD94
:1026600080EF0E9456018AE60E9456011EEE8FE717
:102670001C3008F4812F0E9456011F5F1C30B9F7EF
:10268000AACFDA019C9111968C911197911104C2F5
:1026900013968C90B0E88B9E40011124FA012281A0
:1026A000820E911CA580F0E8AF9E90011124DA0102
:1026B0001496AC90A20EB32EB11C90910001981705
:1026C000E1F09F3F09F0A3CC80930001EFE3F1E03C
:1026D00014911F3F09F49BCC113009F4A7C008F4F2
:1026E00088C0133009F4C4C0143009F4E8C017FDE1
:1026F0008ECC61E00E9470040AC0EFE3F1E0149117
:1027000017FD85CC61E00E947004112319F012308E
:1027100009F025C12401092C000C6608770860E047
:1027200072E18AE790E0A30192010E94FF232596BF
:102730002CAF3DAF4EAF5FAF259769017A01B1E095
:10274000CB1AD108E108F108EFEFCE16D104E1046D
:10275000F10409F00CF4F9C060E472E48FE090E059
:10276000A30192010E94FF2369017A01F1E0CF1ACF
:10277000D108E108F108123009F0C4C02FEFC216E9
:10278000D104E104F104C1F0BCF060E970ED83E034
:1027900090E0A30192010E94FF2369017A0161E0A8
:1027A000C61AD108E108F1088FEFC816D104E10478
:1027B000F10411F00CF06CC32FEF3FEFA901A1144D
:1027C000B10409F006C1113009F454C10CF04DC137
:1027D00011111DCCC7BC20938A0330938B03409307
:1027E0008C0350938D0380916E00826080936E0005
:1027F0000ECC14BC15BC94B5926094BD95B5916097
:1028000095BD282F30E0F901EE51FF4FE491F0E043
:10281000EE0FFF1FEA53FF4F45915491F901EF5F0F
:10282000FE4FE491E093810310E06CCF10928000A2
:102830001092810090918100986090938100909116
:102840008100916090938100282F30E0F901EE51D2
:10285000FF4FE491F0E0EE0FFF1FEA53FF4F459169
:102860005491F901EF5FFE4FE491E09380034ACF6A
:102870001092900010929100909191009860909326
:10288000910090919100916090939100282F30E0F9
:10289000F901EE51FF4FE491F0E0EE0FFF1FEA5314
:1028A000FF4F4591549150932A0440932904F90114
:1028B000EF5FFE4FE491E0932B0413E023CF1092DF
:1028C000C0001092C1009091C10098609093C10027
:1028D0009091C10091609093C100282F30E0F901E0
:1028E000EE51FF4FE491F0E0EE0FFF1FEA53FF4F70
:1028F00045915491F901EF5FFE4FE491E0937F031E
:1029000014E000CF9FEFC916D104E104F10429F1CE
:1029100024F168E478EE81E090E0A30192010E9446
:10292000FF2369017A01A1E0CA1AD108E108F10880
:10293000112309F4EBC2BFEFCB16D104E104F1047B
:1029400011F00CF0ECC211E037CF81E0111134CF5F
:1029500095B5987F892B85BD2FCF82E0F7CF2401D5
:10296000092C000C6608770860E072E18AE790E0C5
:10297000A30192010E94FF2369017A0161E0C61A56
:10298000D108E108F10891E0C114D10481E0E80622
:10299000F10484F068E478EE81E090E0A301920114
:1029A0000E94FF2369017A0191E0C91AD108E10868
:1029B000F10893E01130D1F480918100887F892B58
:1029C000809381002FEF3FEFA901A114B10409F416
:1029D00051C09401220F331FD5010E94D32428EE49
:1029E00033E040E050E00E946824EDCE1330F1F473
:1029F00080919100887F892B809391002FEF3FEF8A
:102A0000A901A114B10429F7D0929900C0929800AD
:102A100020932C0430932D0440932E0450932F04C4
:102A200080917100826080937100F1CA143009F0C6
:102A3000C3CE8091C100887F892B8093C1002FEF86
:102A40003FEFA901A114B10421F6C092CF00209359
:102A500082033093830340938403509385038091D2
:102A60007200806480937200D2CA133069F214300D
:102A700061F3CDCAD0928900C0928800209386036A
:102A800030938703409388035093890380916F00AC
:102A9000826080936F00BBCA913009F0B8CA0E946F
:102AA0004704B5CA80ED91E090CBFA018081811195
:102AB000EAC0A280F0E8AF9EC0011124DA011196AD
:102AC000AC901197A80EB92EB11C13960C911397C8
:102AD000802E912C1496CC90D12C6530A9F58AE1EA
:102AE00090E00E94DA247C01FC0113861286118298
:102AF0001082168A178A108E118EB782A68295864A
:102B00008486D786C68661E0802F0E94700461E0CB
:102B1000F70186850E947004D70151961C921E927F
:102B2000509753961C921E92529755961C921E9245
:102B3000549782E090E019969C938E931897F092A8
:102B40008F03E0928E0363CA6730E9F5FA0145808E
:102B5000512C6680712C8AE190E00E94DA247C017D
:102B6000DC011B961C921E921A971D921C92FC016E
:102B7000168A178A108E118EB782A6829586848651
:102B8000D786C686518A408A738A628A61E0802F1E
:102B90000E94700461E0D7011E968C910E9470041F
:102BA00061E0F70180890E94700461E0D7015296CC
:102BB0008C910E947004F701158A148A84E090E0D9
:102BC00091878087BCCF8DE092E00E94100D612F2D
:102BD00070E090E080E02AE0AE014F5F5F4F7A0145
:102BE0000E94BE23F70101900020E9F731978F0181
:102BF0000E191F09B8016F5F7F4F90E080E00E94BF
:102C0000FF256C01009741F0DC011C92B7010E9486
:102C1000C5260115110541F519828DE392E00E9448
:102C2000100DC7010E94100DC114D10409F4EFC9A1
:102C3000C601CC5BDF4F0FB6F894DEBF0FBECDBF31
:102C4000DF91CF911F910F91FF90EF90DF90CF9088
:102C5000BF90AF909F908F907F906F905F904F90BC
:102C60003F902F900C9476250F33110510F00FE351
:102C700010E0A801B601C7010E94CC26F701E00FC1
:102C8000F11F1082CACF813009F0CCC0C0908E03F2
:102C9000D0908F03C114D10409F4C1C00581F0E8BC
:102CA0000F9FC0011124DA0114960C911497080F9C
:102CB000192F111D16967C90F60126813781032E5F
:102CC000000C440B550B60E077E883E993E00E9429
:102CD000FF23CA01B901D70112968C901297912C4B
:102CE000B12CA12C37E0880C991CAA1CBB1C3A956E
:102CF000D1F713962C91139730E050E040E0EEE0CE
:102D0000220F331F441F551FEA95D1F7822A932AB9
:102D1000A42AB52A11962C9114012501222AA20178
:102D200091010E94FF23D60112962D933D934D935E
:102D30005C931597711003C01195019511097801E5
:102D400017FF04C0EE24FF24E01AF10A1016110642
:102D50000CF04DC081E090E0F6019183808304E0A7
:102D600010E02AE0A22EB12CE114F10409F44FC9BD
:102D70000E94D004F60146885788608C718C9B01B4
:102D8000AC012419350946095709428053806480F3
:102D90007580241535054605570530F3668B778B0E
:102DA000808F918F828593852081318121303105FB
:102DB00029F50196938782872681378182179307A9
:102DC00011F413861286B1E0EB1AF108F601828540
:102DD000938520853185B5012530310509F0B8018D
:102DE0000E94B924BC01C6010E94AD05BDCF012BD4
:102DF00009F4B5CFD6011D921C92B1CF892B21F4D5
:102E00008681978193878287D6011A968D919C91AE
:102E10001B9701971B969C938E931A97D4CF85E4AA
:102E200092E0D3C98230A1F480918E0390918F03F8
:102E3000892B59F080EF0E94560182E70E945601CB
:102E400085E00E94560180E0CAC981E792E0BDC9D1
:102E500086EA92E0BAC984E02FEFC216D104E104F9
:102E6000F10409F008F474CD2596CCACDDACEEACE1
:102E7000FFAC25979AE0F594E794D794C7949A9578
:102E8000D1F7F1E0CF1AD108E108F10885E060CD73
:102E900068E478EE81E090E0A30192010E94FF23B4
:102EA00069017A0161E0C61AD108E108F1088FEFE3
:102EB000C816D104E104F10409F00CF47DCC64E2FD
:102EC00074EF80E090E0A30192010E94FF2369016A
:102ED0007A01B1E0CB1AD108E108F108EFEFCE1684
:102EE000D104E104F10409F008F466CC62E17AE768
:102EF00080E090E0A30192010E94FF2369017A0122
:102F0000A1E0CA1AD108E108F1081BC083E09FEFD5
:102F1000C916D104E104F10409F00CF419CD62E101
:102F20007AE780E090E0A30192010E94FF2369010B
:102F30007A01F1E0CF1AD108E108F108112309F470
:102F40008ACF4FEFC416D104E104F10409F008F46C
:102F500033CC2596CCACDDACEEACFFAC25978AE04B
:102F6000F594E794D794C7948A95D1F731E0C31AC2
:102F7000D108E108F10820CC1F920F920FB60F92F2
:102F800011248F939F938091E1009091E100937FB2
:102F90009093E10083FF0FC01092E90091E09093BD
:102FA000EB001092EC0092E39093ED001092B204CB
:102FB00098E09093F00082FF22C093E09093E900A4
:102FC0009091F200992319F09AE39093E800909180
:102FD0003504992341F09091350491509093350434
:102FE000911101C05D9A9091B104992341F09091A3
:102FF000B10491509093B104911101C0289A84FFBB
:1030000018C08091E2008E7E81608093E200809102
:10301000E1008F7E8093E100809136048E7E806196
:10302000809336049F918F910F900FBE0F901F9049
:10303000189580FFF7CF8091E2008E7E80618093AB
:10304000E2008091E1008E7E8093E1008091360461
:103050008E7E8160E5CF1F920F920FB60F921124E2
:10306000CF92DF92EF92FF920F931F932F933F9394
:103070004F935F936F937F938F939F93AF93BF9380
:10308000EF93FF93CF93DF93CDB7DEB76C97DEBF9F
:10309000CDBF1092E9008091E80083FF25C068E071
:1030A000CE0145960E94160382EF8093E8008D8939
:1030B00087FF39C09091E80090FFFCCF982F907661
:1030C00009F034C19E894F89588D2F89F88C911150
:1030D00031C0803861F5809137048093F1001092FF
:1030E000F1008EEF8093E8006C960FB6F894DEBF87
:1030F0000FBECDBFDF91CF91FF91EF91BF91AF9107
:103100009F918F917F916F915F914F913F912F91FF
:103110001F910F91FF90EF90DF90CF900F900FBE17
:103120000F901F9018959EEF9093E800C7CF1092D4
:10313000F100D5CF913059F48111D3CF41305105F1
:1031400081F6809137048D7F80933704CACF933006
:1031500049F48111C6CF4130510519F680913704E9
:103160008260F2CF953041F48091E80080FFFCCF7F
:1031700020682093E300B5CF963009F0A9C00B8DED
:103180001C8D22E01092E900109233041092320458
:10319000F2122EC010923104109230040E94E50207
:1031A0001F8299E09983FA8291E09E8390EA988742
:1031B0009AEF99872091320430913304275F3F4F73
:1031C0003C832B838D831092E9001092330410927C
:1031D0003204109331040093300449E050E0BE0102
:1031E0006F5F7F4F80E00E94BF020E94E50279CFAF
:1031F00010933104009330040E944A02DC011296BD
:103200000D911C910115110509F451C1D801ED91E1
:10321000FC910480F581E02DBE016B5E7F4FC801FB
:103220000995009709F03EC1F80100851185EACFA4
:10323000F3E0FF120EC08F89882309F440C082306A
:1032400061F440E860E184EA91E00E948C0281111F
:1032500048CF81E28093EB0047CF813029F440E8EA
:103260006BE088E991E0F1CF833099F70E944A0240
:10327000DC011296ED90FC908E010F5F1F4F6801EC
:10328000E114F10479F0D701ED91FC910680F7810A
:10329000E02DB801C7010995080F111DF701E08461
:1032A000F184EECFD8011C92F60101900020E9F7DD
:1032B0003197BF016C197D0940E0C601C6CF62E8B5
:1032C00071E0FB01449150E080E80E94BF0209CF09
:1032D000973009F4BECF983021F481E08093F1005B
:1032E00000CF993009F0FDCE837009F0B2CFE7E14D
:1032F000F1E081E031E096E32191222371F08093A7
:10330000E9003093EB00DF0111972C912093EC0042
:103310009093ED008F5F873079F78EE78093EA0016
:103320001092EA008F898093B204DBCE8B8D9C8D46
:103330001092E900109233041092320490933104F9
:1033400080933004898D811192C08E899D89913A34
:1033500049F4813209F07DCF47E050E065E071E04B
:1033600080E0B3CF913209F074CF833269F48F8952
:10337000988DB0E0A0E08093010190930201A093AA
:103380000301B0930401ADCE803269F48091E8006E
:1033900082FFFCCF67E085E091E00E9416038BEF8F
:1033A0008093E8009ECE823209F09BCE8F89809375
:1033B0000C01EEEFFFE7859194918B3F9C4D51F10D
:1033C000E0E0F8E08091050190910601A0910701ED
:1033D000B0910801803B9440A105B105F1F48091C2
:1033E0000C0180FD1AC0EE3F8AE0F80789F587E7F7
:1033F00097E791838083809160008093340488E113
:103400009BE00FB6F894A895809360000FBE909350
:10341000600067CEEEEFFAE0D5CF808191818737EB
:10342000974709F05ECEA8958091600088618093EF
:1034300060008091340480936000EE3F2AE0F20740
:1034400089F08091FE0A9091FF0A9183808349CE92
:10345000808191818737980751F29093FF0A80937A
:10346000FE0AC5CF1092FF0A1092FE0A3ACE0E94C1
:103470004A02DC0112960D911C910115110509F407
:10348000E8CED801ED91FC910190F081E02DBE01D4
:103490006B5E7F4FC8010995811123CEF80100852D
:1034A0001185EBCF181619060CF41BCED2CEF1E025
:1034B000FF12BECE66E871E004CF1F920F920FB6E6
:1034C0000F9211248F939F93AF93BF93EF93FF932A
:1034D00080912C0490912D04A0912E04B0912F0482
:1034E000892B8A2B8B2BA1F190912B04E09129043D
:1034F000F0912A0480818927808380912C04909107
:103500002D04A0912E04B0912F04181619061A0646
:103510001B069CF480912C0490912D04A0912E0404
:10352000B0912F040197A109B10980932C049093C5
:103530002D04A0932E04B0932F04FF91EF91BF911F
:10354000AF919F918F910F900FBE0F901F90189584
:10355000809171008D7F8093710080912B04E091A8
:103560002904F0912A049081809589238083E5CFF6
:103570001F920F920FB60F9211242F933F938F93A8
:103580009F93AF93BF938091500490915104A09169
:103590005204B09153043091240423E0230F2D37BB
:1035A00058F50196A11DB11D209324048093500469
:1035B00090935104A0935204B09353048091250436
:1035C00090912604A0912704B09128040196A11D92
:1035D000B11D8093250490932604A0932704B093F3
:1035E0002804BF91AF919F918F913F912F910F90A0
:1035F0000FBE0F901F90189526E8230F0296A11D6D
:10360000B11DD2CF1F920F920FB60F9211242F939C
:103610003F934F935F936F937F938F939F93AF935A
:10362000BF93EF93FF938091B900887F803609F4B0
:103630004AC0F0F5883209F4A7C018F5803109F4C2
:103640009BC0B8F4882309F4F9C0883009F494C009
:10365000FF91EF91BF91AF919F918F917F916F916A
:103660005F914F913F912F910F900FBE0F901F9040
:103670001895883109F488C0803251F78093D704B7
:1036800014C0803409F49DC040F48033B9F388330A
:10369000F9F68093D70485ECB0C0803509F485C075
:1036A000883509F496C0883499F60E948B08D0CFEB
:1036B000883909F48CC038F5883729F050F48836F9
:1036C00011F0803729F683E08093D9041092230407
:1036D00057C0883809F47BC0803919F0803809F068
:1036E000B7CF80912304803208F071C0E0912304A9
:1036F00081E08E0F809323048091BB00F0E0ED5FAA
:10370000FB4F80833DC0803B39F0E0F4803A09F400
:1037100079C0883A09F09CCF84E08093D904109254
:1037200000041092FF03E091FD03F091FE03099560
:103730008091FF0381110FC081E08093FF031092FD
:10374000DD0309C0803C09F4A6CF883C09F4A3CF6F
:10375000883B09F07DCFE091000481E08E0F8093DB
:103760000004F0E0E352FC4F80818093BB00909115
:1037700000048091FF0329C08091B4048093BB00B2
:1037800085EC8093BC0064CF9091D6048091D504E1
:10379000981758F5E091D60481E08E0F8093D604F7
:1037A000F0E0EB54FB4F8081E9CFE091D60481E05B
:1037B0008E0F8093D6048091BB00F0E0EB54FB4F5A
:1037C00080839091D6048091D5049817C8F285E83B
:1037D000D8CFE091D60481E08E0F8093D6048091FB
:1037E000BB00F0E0EB54FB4F80838091D804811143
:1037F0005CCF81E08093B30484EA8093BC00109294
:10380000D90426CF85EC8093BC001092D904809116
:103810002304803230F4E0912304F0E0ED5FFB4FAD
:1038200010826091230470E0E0910104F0910204A1
:1038300083E094E00995109223040ACF1092D704F4
:1038400034CF1F920F920FB60F9211242F933F93F4
:103850004F935F936F937F938F939F93AF93BF9398
:10386000CF93DF93EF93FF938091BA03C0915C06EF
:10387000D0E087FF24C010928500109284008091D0
:10388000BA038F5F8093BA038091BA03082E000CAD
:10389000990B8C179D0724F48091BA038C30C4F1E6
:1038A0008091840090918500049680349C4908F4AE
:1038B0007AC08091840090918500049676C08091B2
:1038C000BA03082E000C990B8C179D07C4F6E091E3
:1038D000BA038E2FEE0F990BFC01EE0FFF1FE80FBE
:1038E000F91FE85CF94F808186FFC9CFE091BA03E8
:1038F0008E2FEE0F990BFC01EE0FFF1FE80FF91F43
:10390000E85CF94F808160E08F730E941904B7CFA3
:103910002091840030918500E091BA038E2FEE0F44
:10392000990BFC01EE0FFF1FE80FF91FE85CF94F40
:1039300081819281820F931F9093890080938800E8
:10394000E091BA038E2FEE0F990BFC01EE0FFF1FD3
:10395000E80FF91FE85CF94F808186FF11C0E09104
:10396000BA038E2FEE0F990BFC01EE0FFF1FE80F2D
:10397000F91FE85CF94F808161E08F730E941904A0
:10398000FF91EF91DF91CF91BF91AF919F918F9177
:103990007F916F915F914F913F912F910F900FBE4B
:1039A0000F901F90189580E49CE990938900809374
:1039B00088008FEF8093BA03E3CF10920105109235
:1039C000000548EE53E060E070E04093020550933C
:1039D0000305609304057093050581E291E09093DF
:1039E000FF048093FE048FEF9FEF90930B0580936D
:1039F0000A058EE495E010928F0510928E05909343
:103A000092058093910520E430E030939405209353
:103A100093051092950510929605109298051092B4
:103A200097051092990510929B0510929A05109295
:103A30009D0510929C0510929F0510929E05109274
:103A4000A1051092A0051092A3051092A205109254
:103A5000A5051092A4051092A7051092A605109234
:103A6000AD051092AC051092AF051092AE05109204
:103A7000B1051092B0051092B3051092B2051092E4
:103A8000C1051092C005109290051092CE051092BB
:103A9000D0051092CF0521E020932B0626E031E0DF
:103AA0003093B5052093B40520E131E03093B7059C
:103AB0002093B6052AE131E03093B9052093B8058B
:103AC00024E231E03093BB052093BA052EE231E0C9
:103AD0003093BD052093BC0528E331E03093BF054A
:103AE0002093BE0522E431E03093C3052093C20544
:103AF00023E431E03093C5052093C40524E138E088
:103B00003093C7052093C6059093A9058093A80517
:103B100028EE37E03093C9052093C8059093AB0594
:103B20008093AA058EE491E09093CB058093CA051B
:103B300010922F0610922E064093300650933106B5
:103B4000609332067093330683E391E090932D06E1
:103B500080932C06EDE5F6E02FEF48EB5BE08091DB
:103B60005C068C30B8F491E0980F90935C068083EB
:103B700090E0DC01AA0FBB1FA80FB91FA85CB94FCA
:103B800012965C934E931197339686E0E138F807CE
:103B900031F708952083F8CF789484B5826084BD8E
:103BA00084B5816084BD85B5826085BD85B5816041
:103BB00085BD80916E00816080936E0010928100BF
:103BC000809181008260809381008091810081607A
:103BD000809381008091800081608093800080913B
:103BE0009100826080939100809191008160809328
:103BF0009100809190008160809390008091C1003D
:103C000084608093C1008091C10082608093C10074
:103C10008091C10081608093C1008091C300816068
:103C20008093C3008091C00082608093C000809127
:103C3000C20081608093C20080917A00846080938A
:103C40007A0080917A00826080937A0080917A0075
:103C5000816080937A0080917A00806880937A00F6
:103C60001092B20410923704109236048091D7005B
:103C700081608093D70080EA8093D80089B5806105
:103C800089BD89B5826089BD09B400FEFDCF61E0C0
:103C900070E080E090E00E94F5048091D8008F7C75
:103CA00080618093D8008091E000807F8093E00065
:103CB0008091E1008E7E8093E1008DE08093E200B0
:103CC000559A209A84E18093CE058091CF059091FA
:103CD000D0050E947625C091CE05D0E0CE01019698
:103CE0000E94DA249093D0058093CF05FC01EC0F5D
:103CF000FD1F108222E0DC012C9325E011962C930D
:103D0000AE01425051096BE173E002960E94CC264D
:103D10008AEB9AE0909343048093420483EF99E006
:103D2000909341048093400486EC99E090933F0483
:103D300080933E0488E69CE090933D0480933C048D
:103D400088E59DE090933B0480933A0483E19CE0F6
:103D500090933904809338048BED9FE09093450451
:103D6000809344048FEC9EE0909347048093460434
:103D70008FEF9FEF90930B0580930A0580912B06A0
:103D800081114FC061E08DE00E94700462ED70E02F
:103D900080E090E00E94F50461E08DE00E9419044B
:103DA00068E270E080E090E00E94F50460E08DE061
:103DB0000E94190462ED70E080E090E00E94F5043A
:103DC00061E08DE00E94190468E270E080E090E01C
:103DD0000E94F50460E08DE00E9419046AEF70E033
:103DE00080E090E00E94F504C5E062ED70E080E0C4
:103DF00090E00E94F50461E08DE00E94190468E201
:103E000070E080E090E00E94F50460E08DE00E94A8
:103E10001904C15051F76DE770E080E090E00E9416
:103E2000F5048EEF94E09093CD058093CC059093AC
:103E30008F0580938E05C0910C016AE070E080E0F0
:103E400090E00E94F504CC23B1F30E94CF0E23E052
:103E5000222E312C33E2432E512C48E3642E712C58
:103E600050E0C52E50E0D52E62E0A62EB12C88245D
:103E70008394912C80914C04882309F44AC0D091FA
:103E80004804CD2FC170D0FF07C080E00E94F0032E
:103E9000C1E0892B09F4C0E0D1FF06C081E00E9497
:103EA000F003892B09F0C260D2FF06C082E00E94B5
:103EB000F003892B09F0C460D3FF06C083E00E94A1
:103EC000F003892B09F0C860D4FF06C084E00E948B
:103ED000F003892B09F0C061D5FF06C085E00E9480
:103EE000F003892B09F0C062D6FF06C086E00E946D
:103EF000F003892B09F0C064D7FF06C087E00E9459
:103F0000F003892B09F0C06840E06C2F80E00E942C
:103F1000260C80914D04882309F44AC0D0914904AD
:103F2000CD2FC170D0FF07C088E00E94F003C1E030
:103F3000892B09F4C0E0D1FF06C089E00E94F0039C
:103F4000892B09F0C260D2FF06C08AE00E94F0030C
:103F5000892B09F0C460D3FF06C08BE00E94F003F8
:103F6000892B09F0C860D4FF06C08CE00E94F003E2
:103F7000892B09F0C061D5FF06C08DE00E94F003D7
:103F8000892B09F0C062D6FF06C08EE00E94F003C4
:103F9000892B09F0C064D7FF06C08FE00E94F003B0
:103FA000892B09F0C06840E06C2F81E00E94260C4C
:103FB00080914E04882309F44AC0D0914A04CD2F41
:103FC000C170D0FF07C080E10E94F003C1E0892BDF
:103FD00009F4C0E0D1FF06C081E10E94F003892B03
:103FE00009F0C260D2FF06C082E10E94F003892B73
:103FF00009F0C460D3FF06C083E10E94F003892B5F
:1040000009F0C860D4FF06C084E10E94F003892B48
:1040100009F0C061D5FF06C085E10E94F003892B3D
:1040200009F0C062D6FF06C086E10E94F003892B2A
:1040300009F0C064D7FF06C087E10E94F003892B16
:1040400009F0C06840E06C2F82E00E94260C80914D
:104050004F048823D1F1D0914B04CD2FC170D0FFF4
:1040600007C088E10E94F003C1E0892B09F4C0E099
:10407000D1FF06C089E10E94F003892B09F0C260DC
:10408000D2FF06C08AE10E94F003892B09F0C460C8
:10409000D3FF06C08BE10E94F003892B09F0C860B2
:1040A000D4FF06C08CE10E94F003892B09F0C061A7
:1040B000D5FF06C08DE10E94F003892B09F0C06294
:1040C00040E06C2F83E00E94260C8091CC059091FB
:1040D000CD05DC01ED91FC910084F185E02D099581
:1040E000892B09F4CAC18091CC059091CD05DC01E2
:1040F000ED91FC910284F385E02D09958F3F98079F
:1041000021F3282F30919905332309F491C0873F7B
:1041100009F07EC010929905A0919105B091920589
:104120006C916137C1F1693709F05CC0E091C60557
:10413000F091C705309749F280919A0590919B05BF
:104140008330910560F430E020E050E040E070E022
:1041500060E08091A8059091A9050995B6CFBD01B1
:104160006D5F7F4F03970E94F001BC016D5F7F4F31
:1041700080E00E94C001E0919105F09192059F01BD
:104180002D5F3F4F428150E0618170E0E091C605B4
:10419000F091C705DECF8091C2059091C305892BB0
:1041A00009F493CFBD016F5F7F4F80919A05909185
:1041B0009B0501970E94F001BC016F5F7F4F80E07B
:1041C0000E94C00160919105709192056F5F7F4FD1
:1041D000E091C205F091C3058091AE059091AF05C5
:1041E000099573CFE091C405F091C505309709F4A6
:1041F0006CCF9D012F5F3F4F40919A0550919B05D9
:10420000415051098091B0059091B10509955DCF5C
:1042100060919A0570919B050E94C00180919A055A
:1042200090919B05019690939B0580939A054DCFA5
:1042300060919705709198056115710509F4AEC0FC
:1042400087FDACC061507109709398056093970524
:104250000E94C0018091970590919805892B09F0E3
:1042600034CF80919505882309F42FCF803D09F440
:1042700081C040F4803941F1803C09F467C010925C
:10428000950523CF843FD1F1853F09F44BC0803E93
:10429000B1F7E091B405F091B505309781F3A091A5
:1042A0009105B09192054C9120E8429FA001112404
:1042B00011968C91480F511D6091960580919C0537
:1042C00090919D050995DBCFE091B605F091B7057A
:1042D0003097A9F2A0919105B09192054C9180E898
:1042E000489FA001112411968C91480F511D609197
:1042F000960580919E0590919F05E4CFE091BC05C5
:10430000F091BD05309709F4BACFA0919105B09115
:1043100092054C9150E011966C918091A40590917A
:10432000A505D0CFE091BE05F091BF05309709F407
:10433000A6CFA0919105B09192054C9150E01196B5
:104340006C918091A6059091A705BCCFE091B8052E
:10435000F091B905309709F492CFA0919105B091F1
:1043600092054C9150E0609196058091A005909146
:10437000A105A8CFE091BA05F091BB05309709F4EB
:104380007ECFA0919105B09192054C9150E0609143
:1043900096058091A2059091A30594CF203F30F41B
:1043A000982F9F7090939605282F207F203FF1F142
:1043B00090F4203CB1F150F4203909F086CEB0924F
:1043C0009805A0929705209395057FCE203D49F151
:1043D000203EA9F37ACE293F09F443C028F48CE0AB
:1043E000820F823060F371CE2F3F09F06ECE1092B3
:1043F000980510929705109295051092960590E0F9
:1044000080E0209193053091940582179307B0F4D2
:10441000E0919105F0919205E80FF91F1082019645
:10442000F0CF9092980580929705CDCFA1E0A09310
:10443000990510929B0510929A0547CE1092990506
:1044400010929B0510929A05E091CA05F091CB0558
:104450008091B2059091B305309709F436CE099555
:1044600034CEE091C805F091C905309709F42DCEFE
:104470008091AA059091AB05F2CF8FB7F894009187
:1044800050041091510420915204309153048FBF75
:104490004091A1045091A2046091A3047091A404DE
:1044A00080910E0190910F01B0E0A0E0041B150B6C
:1044B000260B370B80179107A207B30708F057C1E7
:1044C000840F951FA61FB71F8093A1049093A20489
:1044D000A093A304B093A40480919F049091A0049E
:1044E0009C012F5F3F4F3093A00420939F042091A5
:1044F0009D0430919E04281739070CF0B2C0109229
:10450000A00410929F04E0909B04F0909C04E1149E
:10451000F10409F4A6C00091990410919A04F801DD
:10452000EE0FFF1FE357FB4FC081D1818A818823A3
:1045300021F061E088810E94700460E088810E941F
:104540001904C1010197F1F761E088810E94190403
:10455000C2010197F1F760E088810E9419048A8105
:10456000882321F060E088810E9470040E94D004BA
:104570006B837C838D839E8389810E94F003892BCA
:1045800099F40E94D0042B813C814D815E81621B95
:10459000730B840B950B2F81388549855A85261717
:1045A00037074807590740F70E94D0046B837C8384
:1045B0008D839E8389810E94F003892B99F00E944C
:1045C000D0042B813C814D815E81621B730B840B77
:1045D000950B2F81388549855A8526173707480757
:1045E000590740F70E94D0042B813C814D815E81A8
:1045F00000938C04B1E0EB1AF1080E151F050CF0C6
:1046000072C00F5F1F4F10939A0400939904CB015F
:10461000821B930BB3010E94A524862F8F77809372
:104620008B04660F672F661F770B719560938A0462
:1046300080EF0E94560183E60E945601E0918C04AF
:10464000F0E0EC57FB4F80810E94560180918B0473
:104650000E94560180918A040E94560187EF0E94B1
:104660005601CEE4D5E01EEE1C30C8F4FE01ED5735
:10467000FF4F8081823099F480918204909183046D
:10468000012E02C0959587950A94E2F780FF07C036
:10469000812F0E94AC04BC01812F0E943B071F5F49
:1046A00021961C3009F780910D0187FD21C0C0E0E3
:1046B0002C2F30E080910D01082E000C990B8217F1
:1046C0009307B4F085E0829FF001839FF00D1124E1
:1046D000E65AFB4F618172812481438180810E946F
:1046E000290FCF5FE5CF10929A04109299048FCFD3
:1046F0008091580490915904892B09F438C08FB7E0
:10470000F89440915004509151046091520470917A
:1047100053048FBF8091540490915504A091560486
:10472000B0915704481B590B6A0B7B0B209158041E
:1047300030915904A8EEB3E02A9FC0012B9F900D41
:104740003A9F900D1124B0E0A0E084179507A607CA
:10475000B70768F40E94CF0E88E198E00FB6F8948E
:10476000A895809360000FBE90936000FFCFC114A6
:10477000D10409F47FCB0E9400007CCBBB272A30F8
:1047800051F4992342F4BDE290958095709561951E
:104790007F4F8F4F9F4F0C94CE23BB27FA01A62F3C
:1047A0006217710581059105330B30FB66F0AA276E
:1047B000660F771F881F991FAA1FA21710F0A21B50
:1047C00063953850A9F7A05DAA3308F0A95DA193BD
:1047D00036F7B111B1931082CA010C94EF23DC01BA
:1047E000FC01672F71917723E1F7329704C07C9128
:1047F0006D9370836291AE17BF07C8F30895052EBD
:1048000097FB1EF400940E94162457FD07D00E94C7
:10481000682407FC03D04EF40C9416245095409560
:10482000309521953F4F4F4F5F4F0895909580955C
:10483000709561957F4F8F4F9F4F08950E948A24F6
:10484000A59F900DB49F900DA49F800D911D1124E4
:104850000895B7FF0C941E240E941E24821B930B04
:1048600008952F923F924F925F926F927F928F9214
:104870009F92AF92BF92CF92DF92EF92FF920F93EF
:104880001F93CF93DF93CDB7DEB7CA1BDB0B0FB6F9
:10489000F894DEBF0FBECDBF09942A8839884888B6
:1048A0005F846E847D848C849B84AA84B984C8844C
:1048B000DF80EE80FD800C811B81AA81B981CE0F43
:1048C000D11D0FB6F894DEBF0FBECDBFED01089528
:1048D000A1E21A2EAA1BBB1BFD010DC0AA1FBB1F04
:1048E000EE1FFF1FA217B307E407F50720F0A21B76
:1048F000B30BE40BF50B661F771F881F991F1A94E3
:1049000069F760957095809590959B01AC01BD010C
:10491000CF010895A29FB001B39FC001A39F700D66
:10492000811D1124911DB29F700D811D1124911DB7
:104930000895991B79E004C0991F961708F0961BFB
:10494000881F7A95C9F780950895AA1BBB1B51E172
:1049500007C0AA1FBB1FA617B70710F0A61BB70BEF
:10496000881F991F5A95A9F780959095BC01CD0194
:10497000089597FB072E16F4009407D077FD09D011
:104980000E94A52407FC05D03EF4909581959F4F89
:104990000895709561957F4F0895EE0FFF1F059064
:1049A000F491E02D09940E948A24B7FF0895821B98
:1049B000930B08950F931F93CF93DF93823091054C
:1049C00010F482E090E0E0918306F091840630E0FC
:1049D00020E0B0E0A0E0309799F42115310509F40A
:1049E0004AC0281B390B24303105D8F58A819B81B8
:1049F0006115710589F1FB0193838283FE0111C06A
:104A0000408151810281138148175907E0F048170E
:104A1000590799F4109761F012960C931297139618
:104A20001C933296CF01DF91CF911F910F91089582
:104A30000093830610938406F4CF2115310551F0BD
:104A40004217530738F0A901DB019A01BD01DF01CC
:104A5000F801C1CFEF01F9CF9093840680938306CC
:104A6000CDCFFE01E20FF31F8193919322503109C4
:104A700039832883D7CF2091810630918206232B5A
:104A800041F420911201309113013093820620935A
:104A9000810620911001309111012115310541F459
:104AA0002DB73EB74091140150911501241B350BD1
:104AB000E0918106F0918206E217F307A0F42E1B25
:104AC0003F0B2817390778F0AC014E5F5F4F241772
:104AD000350748F04E0F5F1F5093820640938106C2
:104AE000819391939FCFF0E0E0E09CCFCF93DF9351
:104AF0000097E9F0FC01329713821282A09183069D
:104B0000B0918406ED0130E020E01097A1F42081FF
:104B10003181820F931F20918106309182062817E0
:104B2000390709F061C0F0938206E0938106DF91B6
:104B3000CF910895EA01CE17DF07E8F54A815B813E
:104B40009E0141155105B1F7E901FB83EA834991C3
:104B50005991C40FD51FEC17FD0761F48081918135
:104B60000296840F951FE90199838883828193813E
:104B70009B838A83F0E0E0E012968D919C911397DD
:104B80000097B9F52D913C911197CD010296820FB6
:104B9000931F20918106309182062817390739F634
:104BA000309751F51092840610928306B0938206D6
:104BB000A0938106BCCFD383C28340815181840FEF
:104BC000951FC817D90761F44E5F5F4F888199819F
:104BD000480F591F518340838A819B81938382832D
:104BE0002115310509F0B0CFF0938406E0938306D8
:104BF0009ECFFD01DC01C0CF13821282D7CFB0E07F
:104C0000A0E0E5E0F6E20C9433248C01009751F427
:104C1000CB010E94DA248C01C801CDB7DEB7E0E1F8
:104C20000C944F24FC01E60FF71F9C012250310920
:104C3000E217F30708F49DC0D901CD91DC911197DB
:104C4000C617D70798F0C530D10530F3CE010497C9
:104C50008617970708F3C61BD70B2297C193D193EA
:104C60006D937C93CF010E947625D6CF5B01AC1A61
:104C7000BD0A4C018C0E9D1EA0918306B091840646
:104C8000512C412CF12CE12C109731F580918106AB
:104C9000909182068815990509F05CC04616570662
:104CA00008F058C08091100190911101009741F4D3
:104CB0008DB79EB74091140150911501841B950B3F
:104CC000E817F90708F055C0F0938206E0938106D3
:104CD000F90171836083A0CF8D919C9111971296F9
:104CE0006C90129713967C901397A815B90559F5F7
:104CF0006C0142E0C40ED11CCA14DB0420F1AC01EB
:104D00004A195B09DA011296159780F06282738264
:104D100051834083D9016D937C93E114F10471F0C8
:104D2000D7011396FC93EE93129776CF22968C0FB1
:104D30009D1FF90191838083F301EFCFF0938406E7
:104D4000E093830669CF4816590608F42C017D01CB
:104D5000D3019ACFCB010E94DA247C01009749F05D
:104D6000AE01B8010E94BC26C8010E9476258701C9
:104D700053CF10E000E050CFFB01DC0102C00190F6
:104D80000D9241505040D8F70895FB01DC0101908D
:104D90000D920020E1F70895FB01DC0141505040E5
:104DA00048F001900D920020C9F701C01D924150BA
:0A4DB0005040E0F70895F894FFCF9B
:104DBA00FFFFFFFFFF00E1000000000000FF1300FB
:104DCA0000008506800000C180810000000000000C
:104DDA000023032805440339038A034803660300B2
:104DEA000000001509E8084409BE08E108CE08BF1A
:104DFA00084D617820736572766F732061747461EF
:104E0A006368656400556E6B6E6F776E2070696EAD
:104E1A00206D6F6465004932433A20546F6F206DEC
:104E2A00616E79206279746573207265636569764B
:104E3A006564004932433A20546F6F2066657720D3
:104E4A006279746573207265636569766564003199
:104E5A00302D6269742061646472657373696E6768
:104E6A00206E6F7420737570706F7274656400744D
:104E7A006F6F206D616E7920717565726965730057
:104E8A0050494E475F434F4E464947204572726F1D
:104E9A00723A204578636565646564206E756D6253
:104EAA006572206F6620737570706F727465642006
:104EBA0070696E672064657669636573005354454B
:104ECA005050455220434F4E464947204572726F13
:104EDA00723A2057726F6E67204E756D6265722046
:104EEA006F6620617267756D656E747300617267B3
:104EFA0063203D200053544550504552204F5045A1
:104F0A0052415445204572726F723A204D4F544FA8
:104F1A0052204E4F5420434F4E464947555245441E
:104F2A000053544550504552204649524D5741521C
:104F3A00452056455253494F4E204572726F723A78
:104F4A00204E4F204D4F544F525320434F4E464907
:104F5A004755524544005354455050455220434FFB
:104F6A004E464947204572726F723A20554E4B4E53
:104F7A004F574E205354455050455220434F4D4DA4
:104F8A00414E4400443A5C61726475696E6F2D311A
:104F9A002E382E31322D6E65775C6C6962726172C1
:104FAA006965735C4669726D617461457870726592
:104FBA0073735C6578616D706C65735C4669726D5C
:104FCA00617461457870726573735C4669726D616C
:0E4FDA007461457870726573732E696E6F0096
:00000001FF
