:100000000C9463000C948B000C948B000C948B006C
:100010000C948B000C948B000C948B000C942A1580
:100020000C948B000C948B000C948B000C94471751
:100030000C948B000C948B000C948B000C948B0014
:100040000C94DE150C948B000C94AC150C94861556
:100050000C948B000C948B000C948B000C948B00F4
:100060000C9428160C948B0000000000240027003C
:100070002A0000000000250028002B0000000000DE
:1000800023002600290004040404040404040202DA
:100090000202020203030303030301020408102007
:1000A0004080010204081020010204081020000012
:1000B0000008000201000003040700000000000027
:1000C00000000200031811241FBECFEFD8E0DEBFEE
:1000D000CDBF13E0A0E0B1E0E6E0F2E402C005909D
:1000E0000D92A632B107D9F726E0A6E2B3E001C02F
:1000F0001D92AF37B207E1F710E0C3E6D0E004C0CD
:100100002197FE010E94F31EC236D107C9F70E9453
:1001100018190C9401210C940000862FE0911D0405
:10012000F0911E04309711F0BA0109940895862FBA
:10013000E0911B04F0911C04309711F0BA0109946E
:100140000895862FE0911904F0911A04309711F068
:10015000BA0109940895862FE0911704F0911804CC
:10016000309711F0BA0109940895862FE091150493
:10017000F0911604309711F0BA0109940895862F72
:10018000E0911304F0911404309711F0BA0109942E
:1001900008950895862F642FE0911F04F0912004A4
:1001A000309711F0A90109940895E0912104F0918C
:1001B0002204309709F009940895A091E405B091C4
:1001C000E505ED91FC9111970190F081E02D682FEC
:1001D000CD010994982F2091C80481E0213208F0C4
:1001E00043C08091A4048111FCCF8091C70432E008
:1001F0003093A4049093A3049FEF9093A2041092D1
:10020000A1042093A004A7EAB4E0E0E8F4E090E0C1
:10021000291331C010927F0490917F04880F892B9D
:1002200080937F0480917E04813049F510927E0492
:1002300080917F048093BB008091BC0083FDF8CF48
:1002400085EC8093BC008091A4048230E1F380911E
:10025000A2048F3FB1F08091A2048032A1F080917E
:10026000A204803391F084E01092A6041092C80496
:100270001092A50408953D9131939F5FC9CF85EEFB
:10028000E0CF80E0F1CF82E0EFCF83E0EDCF1F93AE
:10029000CF93DF93182FEB018091AB059091AC05C4
:1002A0006817790760F48091A9059091AA05C80F95
:1002B000D91F188380E0DF91CF911F910895E091BD
:1002C000D805F091D905309711F481E0F4CF81E0A1
:1002D0008093A8058091C4059091C50509958091EA
:1002E000AB059091AC05C817D90778F7DCCFCF9351
:1002F000DF93EC01FB0130E020E0C901880F991F7A
:100300008C179D0778F44081DB014D93BD01119757
:100310009181979599279795942B9C932F5F3F4FA9
:100320003296EBCFC901DF91CF910895AF92BF9282
:10033000CF92DF92EF92FF920F931F93CF93DF93B1
:100340006C017B018B01040F151FEB015E01AE18E0
:10035000BF08C017D10759F06991D601ED91FC9102
:100360000190F081E02DC6010995892B79F7C5012F
:10037000DF91CF911F910F91FF90EF90DF90CF9081
:10038000BF90AF900895FC01538D448D252F30E030
:10039000842F90E0821B930B541710F0CF96089592
:1003A00001970895FC01918D828D981761F0A28DBF
:1003B000AE0FBF2FB11D5D968C91928D9F5F9F7385
:1003C000928F90E008958FEF9FEF0895FC01918D3B
:1003D000828D981731F0828DE80FF11D858D90E0A8
:1003E00008958FEF9FEF0895FC01918D228D892F45
:1003F00090E0805C9F4F821B91098F73992708952D
:1004000089EC94E00E94F40121E0892B09F420E0BA
:10041000822F089580E090E0892B29F00E9400024D
:1004200081110C9400000895FC01A48DA80FB92F30
:10043000B11DA35ABF4F2C91848D90E001968F730C
:100440009927848FA689B7892C93A089B1898C912B
:10045000837080648C93938D848D981306C002887A
:10046000F389E02D80818F7D80830895EF92FF9244
:100470000F931F93CF93DF93EC0181E0888F9B8DC7
:100480008C8D98131AC0E889F989808185FF15C081
:100490009FB7F894EE89FF896083E889F9898081A4
:1004A0008370806480839FBF81E090E0DF91CF9173
:1004B0001F910F91FF90EF900895F62E0B8D10E095
:1004C0000F5F1F4F0F731127E02E8C8D8E110CC004
:1004D0000FB607FCFACFE889F989808185FFF5CF4F
:1004E000CE010E941402F1CFEB8DEC0FFD2FF11D18
:1004F000E35AFF4FF0829FB7F8940B8FEA89FB898C
:1005000080818062CFCFCF93DF93EC01888D8823E9
:10051000B9F0AA89BB89E889F9898C9185FD03C066
:10052000808186FD0DC00FB607FCF7CF8C9185FF4B
:10053000F2CF808185FFEDCFCE010E941402E9CF7A
:10054000DF91CF910895833081F028F4813099F0C4
:100550008230A9F008958730A9F08830C9F084303E
:10056000B1F4809180008F7D03C0809180008F77EF
:1005700080938000089584B58F7784BD089584B5F5
:100580008F7DFBCF8091B0008F778093B00008956E
:100590008091B0008F7DF9CFCF93DF93282F30E08B
:1005A000F901E255FF4F8491F901E656FF4FD491CE
:1005B000F901EA57FF4FC491CC23A1F081110E94A9
:1005C000A302EC2FF0E0EE0FFF1FE458FF4FA591C0
:1005D000B491EC91ED2381E090E009F480E0DF91AB
:1005E000CF91089580E090E0FACF1F93CF93DF93EF
:1005F000282F30E0F901E255FF4F8491F901E656CA
:10060000FF4FD491F901EA57FF4FC491CC23A9F0D1
:10061000162F81110E94A302EC2FF0E0EE0FFF1FB6
:10062000EE58FF4FA591B4918FB7F894EC9111114A
:1006300008C0D095DE23DC938FBFDF91CF911F914F
:100640000895DE2BF8CF9091000189130BC0E2ECE6
:10065000F0E0E4919FEF90930001E13049F028F041
:10066000E23061F060E00C94F50210926E00FACF77
:1006700090916F009D7F90936F00F4CF90917000E8
:100680009D7F9093700091E09093B0009091B100A5
:10069000987F94609093B1001092B300E3CFCF9312
:1006A000DF9390E0FC01E656FF4F24918A579F4F5D
:1006B000FC0184918823C9F090E0880F991FFC0108
:1006C000E859FF4FA591B491FC01EE58FF4FC59139
:1006D000D49161110DC09FB7F8948C91209582231D
:1006E0008C938881282328839FBFDF91CF91089521
:1006F000623051F49FB7F8943C91822F8095832308
:100700008C93E8812E2BEFCF8FB7F894EC912E2BA2
:100710002C938FBFEACF8E3008F08E5087708064A4
:1007200080937C0080917A00806480937A0080912D
:100730007A0086FDFCCF8091780090917900089531
:100740003FB7F8948091080490910904A0910A049D
:10075000B0910B0426B5A89B05C02F3F19F0019658
:10076000A11DB11D3FBFBA2FA92F982F8827BC010B
:10077000CD01620F711D811D911D42E0660F771F33
:10078000881F991F4A95D1F708958F929F92AF9233
:10079000BF92CF92DF92EF92FF926B017C010E9499
:1007A000A0034B015C01C114D104E104F104B9F0D0
:1007B0000E94A003681979098A099B09683E734061
:1007C0008105910580F321E0C21AD108E108F10802
:1007D00088EE880E83E0981EA11CB11CE4CFFF9028
:1007E000EF90DF90CF90BF90AF909F908F90089543
:1007F0000F931F93CF93DF93EC018B01888599852D
:10080000029749F46130710509F436C04CF560E097
:100810000115110591F188859985049749F40130F6
:10082000110509F451C09CF50115110509F43BC0EF
:1008300088859985059709F0C5C00A30110508F02B
:10084000C1C0F801EA5DFB4F0C94F31E78048204EA
:100850009004A204BA04BC04C204CC04DA04E00488
:100860006230710591F060E003301105A1F68C85CE
:100870000E94F50260E005C061E08C850E94F502EF
:1008800061E08E850E94F502C6CF61E0F0CF0230B4
:10089000110501F10330110559F661E08C850E94C4
:1008A000F50260E01CC061E08C850E94F50260E00A
:1008B0008E850E94F50261E088890E94F50260E061
:1008C0008A890E94F502B4CF60E08C850E94F5020F
:1008D00061E0EECF60E08C850E94F50261E08E85DC
:1008E0000E94F50260E088890E94F50261E0E8CF8D
:1008F00060E08C850E94F50261E08E850E94F50221
:1009000061E009C060E08C850E94F50261E08E859F
:100910000E94F50260E088890E94F50260E00DC047
:1009200060E08C850E94F50261E08E850E94F502F0
:1009300060E088890E94F50261E08A890E94F502E0
:1009400061E011C060E08C850E94F50261E08E8557
:100950000E94F50260E088890E94F50261E08A89C0
:100960000E94F50260E08C89DF91CF911F910F9179
:100970000C94F50261E0E7CF61E08C850E94F502FE
:1009800060E0E5CF61E08C850E94F50260E08E8535
:100990000E94F50261E0DFCF61E08C850E94F502E4
:1009A00060E08E850E94F50261E088890E94F50270
:1009B00060E0D5CF61E08C850E94F50260E09DCFBC
:1009C00060E0F9CFDF91CF911F910F9108955F9271
:1009D0006F927F928F929F92AF92BF92CF92DF924F
:1009E000EF92FF920F931F93CF93DF935C01690106
:1009F000DA015C90232B19F4CC24CA94DC2C8A01F4
:100A00003A01660E771ED0E0C0E0F12CE12C87E0C1
:100A1000882E912CF50180819181D8016C910C2E4A
:100A200001C0660F0A94EAF765296F77DC01ED9142
:100A3000FC910190F081E02D0995BFEFEB1AFB0AC4
:100A4000F801608170E0C4018C1B9D0B02C075959C
:100A500067958A95E2F7562E2196C730D10558F151
:100A6000CE14DF0441F1D5018D919C91652D6F77F6
:100A7000DC01ED91FC910190F081E02D0995BFEF33
:100A8000EB1AFB0A551C5524551C2797E6CFEC148E
:100A9000FD0408F4BFCFDF91CF911F910F91FF901C
:100AA000EF90DF90CF90BF90AF909F908F907F900E
:100AB0006F905F9008950F5F1F4F6016710639F7B2
:100AC000209749F3EC14FD0430F7F5018081918102
:100AD00061E070E001C0660FCA95EAF761506521D8
:100AE000DC01ED91FC910190F081E02DDF91CF913F
:100AF0001F910F91FF90EF90DF90CF90BF90AF903C
:100B00009F908F907F906F905F9009941F93CF93E9
:100B1000DF9300D0CDB7DEB7182F7A836983809139
:100B2000A6059091A7050097C9F0DC01ED91FC9115
:100B30000190F081E02D1031B8F461157044A0F4FB
:100B4000612F606E099522E030E0AE014F5F5F4F8C
:100B500062E070E086EA95E00E94E7040F900F9053
:100B6000DF91CF911F91089560EF09958091A605BF
:100B70009091A705DC01ED91FC910190F081E02DB1
:100B80006FE609958091A6059091A705DC01ED918E
:100B9000FC910190F081E02D612F099522E030E079
:100BA000AE014F5F5F4F62E070E086EA95E00E9421
:100BB000E7048091A6059091A705DC01ED91FC91D9
:100BC0000190F081E02D67EF0995C8CFEF92FF9279
:100BD0000F931F93CF93DF93C82F8091A605909119
:100BE000A7050097C9F17A018B01DC01ED91FC9119
:100BF0000190F081E02D60EF09958091A60590911C
:100C0000A705DC01ED91FC910190F081E02D6C2FA6
:100C10000995E7010E0D1F1DC017D10759F030E0EF
:100C200020E0AE0161E070E086EA95E00E94E70412
:100C30002196F2CF8091A6059091A705DC01ED9158
:100C4000FC910190F081E02D67EFDF91CF911F9132
:100C50000F91FF90EF900994DF91CF911F910F9129
:100C6000FF90EF900895CF93DF93009729F1EC0167
:100C7000C05CDF4F888199810097F1F0DC01ED9134
:100C8000FC910190F081E02D69EF099588819981AF
:100C9000DC01ED91FC910190F081E02D62E009957D
:100CA00088819981DC01ED91FC910190F081E02D2A
:100CB00065E0DF91CF910994DF91CF910895CF92B4
:100CC000DF92EF92FF920F931F93CF93DF930097E2
:100CD00009F463C0FC01E058FF4FE080EE2009F406
:100CE0005CC0EC01C05CDF4FA881B981109709F4AA
:100CF00054C0FC01EF57FF4FC080D180F601118135
:100D00000081ED91FC9111970190F081E02D60EF51
:100D1000CD01099588819981DC01ED91FC910190CB
:100D2000F081E02D69E7099588819981DC01ED91D9
:100D3000FC910190F081E02D602F099588819981C7
:100D4000DC01ED91FC910190F081E02D612F09957E
:100D5000F12C01E010E00F5F1F4FE016F10659F093
:100D600030E020E0A601400F511F61E070E0CE01AD
:100D70000E94E704F0CF88819981DC01ED91FC911C
:100D80000190F081E02D67EFDF91CF911F910F91DE
:100D9000FF90EF90DF90CF900994DF91CF911F915A
:100DA0000F91FF90EF90DF90CF90089585ED8093A5
:100DB000BC008091BC0084FDFCCF1092A404089577
:100DC0002091E203260F3327331F21323105ECF443
:100DD0002091A404FC0190E080E0243069F082E0DE
:100DE0000895A091E2032191AC0140545C4FA40FFF
:100DF000B52FB11D2C930196861798F38091E203CD
:100E0000680F6093E20380E0089581E008950895FB
:100E100008950895E091BF038091BE03E81730F470
:100E2000F0E0E256FC4F808190E008958FEF9FEF55
:100E300008959091BF038091BE032FEF3FEF981765
:100E400048F4E92FF0E0E256FC4F208130E09F5F4C
:100E50009093BF03C90108958091BE039091BF0391
:100E6000891B990B0895CF92DF92EF92FF920F9317
:100E70001F93CF93DF937C01CB018A012091A504BE
:100E8000222389F0EB016B01C40ED51ECC15DD05C4
:100E900069F06991D701ED91FC910190F081E02D0D
:100EA000C7010995F3CF642F0E94E006C801DF91C6
:100EB000CF911F910F91FF90EF90DF90CF90089509
:100EC000CF93DF931F92CDB7DEB769832091A5043E
:100ED0002223F9F02091C804203258F021E030E0BC
:100EE000FC013383228390E080E00F90DF91CF916B
:100EF00008958091A604E82FF0E0E955FB4F998111
:100F000090838F5F8093A6048093C80481E090E073
:100F1000ECCF61E0CE0101960E94E006F7CF90E0B1
:100F200080E00895DF92EF92FF920F931F93CF938B
:100F3000DF93EC01D62E7A01890188818C3008F08C
:100F400067C061E08D2D0E944F038881282F30E01B
:100F5000F901EE0FFF1FE20FF31FEE5CF94F9D2D1D
:100F60009F736081607C692B608320E232E02E19E0
:100F70003F0937FF02C02D5F3F4F359527953595C7
:100F80002795298320E639E0201B310B37FF02C06B
:100F90002D5F3F4F35952795359527952A832CE072
:100FA000622F0E94BF1E829FB001112430E020E01A
:100FB000AB01420F531FFA01EE0FFF1FE40FF51FA5
:100FC000EE5CF94F908196FD16C02F5F3F4F2C309D
:100FD000310571F781110FC01092800082E080937B
:100FE00081001092850010928400B19A80916F0068
:100FF000826080936F00E8818E2F90E0FC01EE0FFD
:10100000FF1FE80FF91FEE5CF94F80818064808339
:101010008881DF91CF911F910F91FF90EF90DF902A
:101020000895CF938630B0F421E030E0082E02C05E
:10103000220F331F0A94E2F740915B0450915C0445
:10104000672B51F4209530952423352330935C048D
:1010500020935B04CF910895242B352B30935C04AF
:1010600020935B0490919C039111F4CFC82F0E94B0
:101070008B03BC018C2FCF910C9486055F926F92ED
:101080007F928F929F92AF92BF92CF92DF92EF9218
:10109000FF920F931F93CF93DF93833008F061C0CB
:1010A000D1E0D80FDD0FDD0FDD0F5D2ED53110F053
:1010B00044E1542EC62F082FD8508D2E912CC401F8
:1010C000880F991F9C012A593A4F5901D12CC12CE4
:1010D00010E077247394D515C8F58EEF8D0F82310B
:1010E000F8F4F601E80DF91DE751FA4F90819230BE
:1010F000B8F48C2F872166246394811101C0612C80
:101100007601EE0CFF1C913089F4172937E9E30EC4
:10111000F11CF501EE0DFF1D862D90E0918380837B
:10112000770CDF5F8FEFC81AD80AD5CF882371F309
:10113000F701E956FF4FEA0DFB1D80819181019770
:1011400029F362E08D2F0E944F03E0CF011119C0F7
:10115000F8948BB16C2F68276C7F612368276BB97B
:101160007894DF91CF911F910F91FF90EF90DF90D6
:10117000CF90BF90AF909F908F907F906F905F9037
:1011800008950130D1F4C123F89495B1812F8F7364
:10119000809589239C2F9F73892B85B988B1612FF6
:1011A000629566956695637060956823C295C6954D
:1011B000C695C370C62BC8B9D3CF1F70F89498B129
:1011C000812F880F880F80958923C123CC0FCC0FE6
:1011D000C82BF1CF8F929F92AF92BF92CF92DF92A6
:1011E000EF92FF920F931F93CF93DF93EB01843124
:1011F00008F098C0082F10E0F801E751FA4F9081ED
:10120000933009F49CC0943009F08CC08250823134
:1012100008F081C0F801EC57FC4FC080D12C76015A
:10122000EE0CFF1C4B01603282E078070CF03EC0F0
:10123000F701EC0DFD1DE95AF94F8181A8E88A2ECE
:10124000912C881A910887FD9394880C991C880C1E
:10125000991C092C000CAA08BB08828128E532E001
:10126000281B310987FD3395220F331F220F331FAF
:10127000032E000C440B550B281939094A095B0948
:10128000DB01653B710514F0A4EBB0E0B7FF02C0D1
:10129000B0E0A0E00E944F1E24EB30E040E050E0C0
:1012A0000E94251E820E931EA41EB51EF701EC0D92
:1012B000FD1DE95AF94F20812C3068F5318188E80D
:1012C00090E0831B910937FD9395880F991F880F34
:1012D000991F881699067CF0328188E592E0831B7D
:1012E000910937FD9395880F991F880F991F8816CC
:1012F00099060CF4C4010297880F991F4FB7F89410
:1013000030E0F901EE0FFF1FE20FF31FEE5CF94F23
:10131000928381834FBF000F111FF801E350FA4FF2
:10132000D183C083DF91CF911F910F91FF90EF90F8
:10133000DF90CF90BF90AF909F908F9008957B01EA
:10134000D82F833041F08BEF800F823020F087EF71
:10135000800F833058F461E08D2F0E944F03E11419
:10136000F10461F460E08D2F0E94F502000F111F5F
:10137000F801E350FA4FF182E082D4CF8FEFE81604
:10138000F10411F461E0EFCFF801E255FF4FE49171
:10139000E33021F148F4E130B9F0E230D1F080E8F7
:1013A000E816F1047CF7DECFE73011F1E83041F1C7
:1013B000E430A9F780918000806280938000F092F1
:1013C0008B00E0928A00D2CF84B5806884BDE7BCF0
:1013D000CDCF84B5806284BDE8BCC8CF8091800049
:1013E000806880938000F0928900E0928800BECFF0
:1013F0008091B00080688093B000E092B300B6CFD7
:101400008091B00080628093B000E092B400AECFD3
:101410009EEF980F923180F4E82FF0E0DF01A751A2
:10142000BA4F9C91913041F4EE0FFF1FE350FA4FF9
:10143000608371830C94F5020895FF920F931F93BC
:10144000CF93DF9300D0CDB7DEB7082F10E0F801BF
:10145000ED5DFB4F9081F62EF92208561C4F41118D
:1014600004C0F80190819F1511F12F2D30E03A83CF
:101470002983A091A605B091A7051097B1F0682F18
:101480006F706069ED91FC9111970190F081E02DF2
:10149000CD01099522E030E0AE014F5F5F4F62E081
:1014A00070E086EA95E00E94E704F801F0820F9070
:1014B0000F90DF91CF911F910F91FF90089583308E
:1014C00040F5282F30E0F901EA5DFB4F6083672B80
:1014D00001F12D5D3B4FF9016081811106C099B189
:1014E0009C7F692341E00C941D0A813049F493B13B
:1014F00026B19F73F0E42F9F90011124922BF1CF1E
:1015000026B130E035952795359527952F706223C4
:10151000E9CF0895A82FB0E0AC57BC4F9C91292F7C
:1015200030E0F901EE0FFF1FE20FF31FE95AF94F08
:10153000E0812E2F30E0F901EE0FFF1FE20FF31FC5
:10154000EE5CF94F80818F7B8083809182039813BA
:1015500008C0992319F09150909382038FEF8C93D8
:1015600008958823D9F3E0918303EF5FE093830329
:10157000F0E0EB5DFC4F9083F1CFFC010190002087
:10158000E9F73197BF01681B790BAC0181E70C9437
:10159000E605CF93DF93DB01909182039C3078F5D1
:1015A00030918303682F70E0FB01EC57FC4F33232D
:1015B000E1F0C32FD0E0CB5DDC4F888180833150D8
:1015C00030938303808123E0829FC0011124895AD4
:1015D000994F1A161B0674F4141615065CF49A013A
:1015E000AD01DF91CF910C94920790839F5F909310
:1015F0008203E8CF20E639E040E252E0F2CF8EE20B
:1016000091E0DF91CF910C94BD0A9F92AF92BF926F
:10161000CF92DF92EF92FF920F931F93CF93DF93BE
:10162000C82ED12CE601CA59DA4FFE01ED57FF4F03
:1016300090819F3709F4A1C0963061F490919B038B
:10164000992341F06630710529F010929B039FEFBA
:10165000909301017B01182F0EEF080F023108F55E
:1016600064307105F1F0F601EC57FC4F80818C304D
:10167000C0F490E0FC01EE0FFF1FE80FF91FE95ADC
:10168000F94FE0818E2F90E0FC01EE0FFF1FE80F75
:10169000F91FEE5CF94F808186FF03C0812F0E9405
:1016A0008A0A52EF952E910E85E0891558F061E077
:1016B00070E032E0E316F10411F070E060E0892D93
:1016C0000E9411080231C8F4E12FE695E695E695EF
:1016D000F0E0ED5DFB4F2081312F377081E090E02D
:1016E00001C0880F3A95EAF7E114F10421F03BE0DC
:1016F000E316F10411F5822B80835601AA0CBB1C62
:10170000F501E350FA4F118210828EE0E816F104E1
:1017100008F0E5C0F701E157F44F0C94F31EB10B4C
:10172000DE0BA00BF50B140C6F0C4B0C6F0C670C45
:101730006F0CBD0BC90B5F0C570C80958223DCCF5F
:1017400035E03915D0F0023120F460E0812F0E949D
:101750004F03CD57DF4F88818F3779F082E0888340
:101760000CC0023150F460E0812F0E944F03CD572E
:10177000DF4F88818F3709F01882DF91CF911F9159
:101780000F91FF90EF90DF90CF90BF90AF909F9020
:101790000895023190F762E0812F0E944F03CD57E8
:1017A000DF4F88818F3711F08BE08883F501E3509C
:1017B000FA4F81E090E091838083DFCF0231E8F639
:1017C000FE01ED57FF4F8081833021F460E0812FCF
:1017D0000E94F50261E0812F0E944F03CD57DF4F39
:1017E00088818F3751F281E0BACF133049F08BEF07
:1017F000810F823028F087EF810F833008F0BDCF52
:1018000061E0812F0E944F0361E0812F0E944F030E
:1018100060E0812F0E94F502CD57DF4F88818F371E
:1018200009F4ABCF83E09BCF023108F0A6CFCD57B0
:10183000DF4F88818F3711F084E08883F601EC5701
:10184000FC4F80818F3FA9F090E0FC01EE0FFF1F5D
:10185000E80FF91FE95AF94FE0818E2F90E0FC0163
:10186000EE0FFF1FE80FF91FEE5CF94F808186FD38
:1018700084CF4FEF5FEF6FEF7FEF812FDF91CF913D
:101880001F910F91FF90EF90DF90CF90BF90AF909E
:101890009F900C94C90A1251123008F06ECFCD57A8
:1018A000DF4F88818F3709F468CF86E058CFCD5756
:1018B000DF4F88818F3709F460CF8DE050CFCD574F
:1018C000DF4F88818F3709F458CF8CE048CFCD5750
:1018D000DF4F88818F3709F450CF88E040CF82E412
:1018E00091E0DF91CF911F910F91FF90EF90DF90EA
:1018F000CF90BF90AF909F900C94BD0A0F931F9311
:10190000CF93DF9381E080939C0380919B03882396
:1019100029F010929B038FEF80930101109226040F
:10192000109223041092980310922704109224041A
:1019300010929903109228041092250410929A0391
:1019400004E813E0C0E0DFEF82EF8C0F62E070E0AC
:101950008630A0F18EEF8C0F61E070E0823170F57F
:101960008C2F0E942303F801D1938F01CF5FC431E4
:1019700059F71092750410927404EDE5F4E0A6E6B0
:10198000B4E08FE781932D913D91232B21F0ED0160
:1019900022971982188294E0E336F90799F710929A
:1019A0005C0410925B0410928303109282031092E5
:1019B0009C03DF91CF911F910F9108958C2F0E946E
:1019C000050BD1CFEF92FF920F931F93CF93DF932D
:1019D000D82F8B01C42FF22E6F3F760709F488C0F1
:1019E00081E08093A504D093C7041092A6041092BE
:1019F000C80486E296E00E9460078F2D0E94EA00EC
:101A000080918003909181038230910538F0880F96
:101A1000991F880F991F05970197F1F78091A404EA
:101A20008111FCCF9C2FC13208F090E281E08093BD
:101A3000A4048093A3042FEF2093A2041092A10486
:101A4000290F2093A00480937F0420917F048D2F81
:101A5000880F822B80937F0480917E04813009F06F
:101A600049C010927E0480917F048093BB008091D6
:101A7000BC0083FDF8CF85EC8093BC008091A4046A
:101A80008130E1F38091A104891710F49091A104B1
:101A9000A0E8B4E0EEE9F3E080E089132DC01092F5
:101AA000BF038093BE03EC2EF12C90E0E816F906FC
:101AB0003CF583E591E00E94BD0AD0933203009388
:101AC000330302E313E0C801825393408E159F0550
:101AD000ECF40F5F1F4F9091BE038091BF039817E6
:101AE000A9F086E296E00E941907F8018183EBCF06
:101AF00000E094CF85EEC0CF2D9121938F5FCDCFA5
:101B00008E159F05D4F680E791E0D5CFCE5F6C2F80
:101B100070E042E353E087E7DF91CF911F910F918F
:101B2000FF90EF900C94E6052F923F924F925F92B8
:101B30006F927F928F929F92AF92BF92CF92DF92DD
:101B4000EF92FF920F931F93CF93DF93CDB7DEB742
:101B5000C454D1090FB6F894DEBF0FBECDBF162F07
:101B60007A018D3609F4F9C208F08CC08F3509F47A
:101B700046C300F5803509F41EC2813509F4E3C07F
:101B8000CC5BDF4F0FB6F894DEBF0FBECDBFDF9149
:101B9000CF911F910F91FF90EF90DF90CF90BF906A
:101BA000AF909F908F907F906F905F904F903F90FD
:101BB0002F900895893609F411C38B3609F467C252
:101BC0008236F1F620917404309175042630310587
:101BD0000CF0FDC4DA018C9180937F0311969C91E7
:101BE000119790937E031396CC90B0E8CB9EA00102
:101BF0001124F701C280C40ED52ED11C0D2C000C6F
:101C0000EE08FF08235A3B4FD9018C936CE070E03B
:101C10000E94050B6CE070E080917E030E94050B32
:101C20008BE090E00E94001F8C0120917E03809148
:101C30007F03F8018083218391E0281390E0D8018D
:101C400012969C9361E00E944F0360E0F80181814D
:101C50000E944F03D8011796CD92DD92ED92FC922F
:101C60001A978091740490917504FC01EE0FFF1F88
:101C7000EA59FB4F1183008301969093750480937A
:101C800074047ECF823709F4A5C408F048C08F36AB
:101C900009F4DAC1803709F073CF653008F470CFEA
:101CA000FA0110818EEF810F823108F069CF018136
:101CB000C280D380F480E12FF0E0EC57FC4F8081AC
:101CC0008C30C0F490E0FC01EE0FFF1FE80FF91F0D
:101CD000E95AF94FE0818E2F90E0FC01EE0FFF1FD3
:101CE000E80FF91FEE5CF94F808186FF03C0812F5A
:101CF0000E948A0AF0E8FF9EA00111244D0D511D9B
:101D000020E8C29EB0011124600F711D812F0E9436
:101D1000C90A64E070E0812F0E94050B31CF88373B
:101D200009F4EFC08A3709F46AC1863709F028CF71
:101D3000DA0111969C91119795FF0FC08CE891E004
:101D40000E94BD0A1DCF80EF0E94DD0082E50E9447
:101D5000DD0081E00E94DD00FCC1FA01808196FB7C
:101D6000332730F921E0232798719830A1F1E8F466
:101D7000911106CF91E09093A5048093C70410922F
:101D8000A6041092C80402E00117E8F4F701E00F7E
:101D9000F11D61816795662767958081680F86E2EE
:101DA00096E00E9460070E5FEFCF903189F1983185
:101DB00009F0E6CE2091010112160CF45DC08FEF00
:101DC00080930101DDCE81E00E94EA0083E191E091
:101DD0000197F1F7D5CE12969C91129713964C91DC
:101DE000663079F4B0E84B9FB0011124690F711D82
:101DF00045814795442747959481490F0E94E20CFD
:101E0000BFCE479544274795490F6FEF7FEFF6CF39
:101E1000E0910101E7301CF08CEA91E091CF12963D
:101E20003C91129713969C916630F9F4B0E89B9F11
:101E3000A0011124430F511DD70115969C911597B0
:101E400097959927979514963C91930FEF5FE093A0
:101E50000101B5E0EB02F0011124ED5CFB4F808342
:101E600052834183938324838BCE979599279795AB
:101E7000930F4FEF5FEFEACF90E0622F022E000C3E
:101E8000770B35E0492F50E06417750764F0349FF5
:101E9000F001359FF00D1124ED5CFB4F4081481798
:101EA00019F09F5FEFCF90E085E0492F50E0641775
:101EB00075071CF19830F8F4FA0131968E9FD00125
:101EC0008F9FB00D1124AD5CBB4F3C91849FF001FE
:101ED000859FF00D1124ED5CFB4F308311964D91E1
:101EE0005C9112975283418313963C9113973383ED
:101EF00014963C9134839F5FD8CF215020930101E9
:101F00003FCE623088F0FA018181F0E88F9F900126
:101F10001124DA018C91820F932F911D009721F0EB
:101F2000909381038093800380919B03811128CE3D
:101F300010E08EEE810F823028F466E070E0812F91
:101F40000E94050B1F5F1431A1F781E080939B0372
:101F50001092BF031092BE031092A6041092C80400
:101F60001092A4048093A30410927E0461E082E1A5
:101F70000E94F50261E083E10E94F5028091B900C0
:101F80008E7F8093B9008091B9008D7F8093B900D6
:101F900088E48093B80085E48093BC0087E097E0F4
:101FA0009093E1038093E00388E097E09093E5034A
:101FB0008093E403E5CDDA0111968C91B0E88B9F14
:101FC00090011124FA018081820F932F911D90932B
:101FD0003204809331042FB7F894809129049091B2
:101FE0002A04A0912B04B0912C042FBF80932D04C0
:101FF00090932E04A0932F04B0933004C1CD62308F
:1020000008F4BECDDA0111968C91B0E88B9F900157
:102010001124FA018081820F932F911D009789F07E
:10202000909303018093020160910201709103017A
:1020300088E290E00E94CB1E709377046093760450
:102040009FCD81E090E0ECCF623008F499CDDA01C9
:1020500011966C91119770E01230A1F012968C914C
:10206000B0E88B9FC0011124682B792B133051F0FD
:10207000FA01838190E090E4899F902D88271124B4
:10208000682B792BD7018C910E94EA0879CD80EFDB
:102090000E94DD008CE60E94DD001EEF84EF810FC0
:1020A0008630B0F582E00E94DD008AE00E94DD000B
:1020B0008DEF810F823070F189EF810F833080F5D1
:1020C00029C0123158F780E00E94DD0081E00E94B3
:1020D000DD008BE00E94DD0081E00E94DD0081E0F8
:1020E0000E94DD0081E00E94DD0088E00E94DD00AA
:1020F00081E00E94DD008CE00E94DD0081E00E9412
:10210000DD008DE00E94DD0081E00E94DD00C6CF91
:10211000113071F683E00E94DD0088E00E94DD004E
:10212000123130F484E00E94DD008EE00E94DD0078
:1021300080EF810F823030F486E00E94DD0081E084
:102140000E94DD008FE70E94DD001F5F123109F061
:10215000B8CF87EF0E94DD0013CD662309F410CDC0
:10216000FA01008180EF0E94DD008EE60E94DD0012
:10217000802F0E94DD00043160F710E0F801E75184
:10218000FA4F80810E94DD00000F111F980123503B
:102190003A4F7901D9018C918F770E94DD00F701C8
:1021A000808191819C012078232B39F0880F892F21
:1021B000881F990B8F770E94DD00F801E350FA4FDA
:1021C000808191819C012227307C232B11F2990F71
:1021D000880B990F982F881F8F77BCCD80EF0E94B6
:1021E000DD008AE60E94DD0012EF8FE7163008F46A
:1021F000812F0E94DD001F5F1630B9F7AACFDA01E8
:102200009C9111968C9111979111DBC113968C9032
:10221000B0E88B9E40011124FA012281820E911CAC
:10222000A580F0E8AF9E90011124DA011496AC90DD
:10223000A20EB32EB11C909100019817C9F09F3FD8
:1022400009F09ECC80930001E2ECF0E014911F3F76
:1022500009F496CC113009F490C008F471C0123022
:1022600009F4ADC017FD8CCC61E00E944F030AC099
:10227000E2ECF0E0149117FD83CC61E00E944F0383
:10228000112319F0123009F033C12401092C000C7C
:102290006608770860E072E18AE790E0A3019201A6
:1022A0000E94251E25962CAF3DAF4EAF5FAF259700
:1022B00069017A01B1E0CB1AD108E108F108EFEF2A
:1022C000CE16D104E104F10409F00CF4EAC060E494
:1022D00072E48FE090E0A30192010E94251E690143
:1022E0007A01F1E0CF1AD108E108F108123009F0C3
:1022F0008DC082E02FEFC216D104E104F104C9F0D1
:10230000C4F060E970ED83E090E0A30192010E94C7
:10231000251E69017A0161E0C61AD108E108F108B9
:102320008FEFC816D104E104F10411F00CF041C3A1
:1023300083E09091B100987F892B8093B100B8C061
:1023400014BC15BC94B5926094BD95B5916095BDD3
:10235000282F30E0F901EA57FF4FE491F0E0EE0F4B
:10236000FF1FEE58FF4F45915491F901E656FF4F7C
:10237000E491E093730310E080CF109280001092FC
:1023800081009091810098609093810090918100EC
:10239000916090938100282F30E0F901EA57FF4FB8
:1023A000E491F0E0EE0FFF1FEE58FF4F459154917E
:1023B000F901E656FF4FE491E09372035ECF10926D
:1023C000B0001092B1009091B00092609093B00074
:1023D0009091B10091609093B100282F30E0F90105
:1023E000EA57FF4FE491F0E0EE0FFF1FEE58FF4F6A
:1023F0004591549150930D0440930C04F901E65615
:10240000FF4FE491E0930E0412E037CF9FEFC9161F
:10241000D104E104F10409F00CF468C068E478EE3A
:1024200081E090E0A30192010E94251E69017A01DA
:10243000A1E0CA1AD108E108F108112309F4D2C2B7
:10244000BFEFCB16D104E104F10411F00CF0D3C2BC
:10245000C7C264E274EF80E090E0A30192010E94A1
:10246000251E69017A01B1E0CB1AD108E108F10813
:1024700085E0EFEFCE16D104E104F10409F008F491
:1024800058CF62E17AE780E090E0A30192010E94D8
:10249000251E69017A0191E0C91AD108E108F10805
:1024A000BCC281E0111145CF95B5987F892B85BDC0
:1024B0002FEF3FEFA901A114B10409F053C011306F
:1024C00009F45DC0123009F46CC0111159CBC7BCBE
:1024D000209378033093790340937A0350937B03DE
:1024E00080916E00826080936E004ACB82E0DACFEA
:1024F0002401092C000C6608770860E072E18AE785
:1025000090E0A30192010E94251E69017A0161E019
:10251000C61AD108E108F10891E0C114D10481E0A4
:10252000E806F10484F068E478EE81E090E0A3012D
:1025300092010E94251E69017A0191E0C91AD10811
:10254000E108F10893E0113009F0B2CF80918100E9
:10255000887F892B809381002FEF3FEFA901A11481
:10256000B10469F09401220F331FD5010E94F91EB6
:1025700028EE33E040E050E00E948E1EA0CFD092C3
:102580008900C092880020937403309375034093B0
:1025900076035093770380916F00826080936F0081
:1025A000EFCAC092B30020930F04309310044093FD
:1025B0001104509312048091700082608093700027
:1025C000DFCA913009F0DCCA0E942303D9CA8DEB1F
:1025D00091E0B6CBFA0180818111E6C0A280F0E8DB
:1025E000AF9EC0011124DA011196AC901197A80E8C
:1025F000B92EB11C13960C911397802E912C149622
:10260000CC90D12C6530A9F58AE190E00E94001FA2
:102610007C01FC011386128611821082168A178AA9
:10262000108E118EB782A68295868486D786C6863E
:1026300061E0802F0E944F0361E0F70186850E94D0
:102640004F03D70151961C921E92509753961C929D
:102650001E92529755961C921E92549782E090E0DB
:1026600019969C938E931897F0927D03E0927C03C9
:1026700087CA6730E9F5FA014580512C6680712CD4
:102680008AE190E00E94001F7C01DC011B961C92F5
:102690001E921A971D921C92FC01168A178A108EA0
:1026A000118EB782A68295868486D786C686518A81
:1026B000408A738A628A61E0802F0E944F0361E042
:1026C000D7011E968C910E944F0361E0F70180892B
:1026D0000E944F0361E0D70152968C910E944F03F4
:1026E000F701158A148A84E090E091878087BCCF37
:1026F0008AEF91E00E94BD0A612F70E090E080E0D7
:102700002AE0AE014F5F5F4F7A010E94E41DF7019E
:1027100001900020E9F731978F010E191F09B801C8
:102720006F5F7F4F90E080E00E9425206C01009752
:1027300041F0DC011C92B7010E94EB20011511054C
:1027400021F519828AE292E00E94BD0AC7010E9427
:10275000BD0AC601CC5BDF4F0FB6F894DEBF0FBEDB
:10276000CDBFDF91CF911F910F91FF90EF90DF9040
:10277000CF90BF90AF909F908F907F906F905F9021
:102780004F903F902F900C949C1F0F33110510F029
:102790000FE310E0A801B601C7010E94F220F70183
:1027A000E00FF11F1082CECF813009F0CCC0C09075
:1027B0007C03D0907D03C114D10409F4C1C005810C
:1027C000F0E80F9FC0011124DA0114960C911497C0
:1027D000080F192F111D16967C90F601268137815E
:1027E000032E000C440B550B60E077E883E993E07F
:1027F0000E94251ECA01B901D70112968C9012972A
:10280000912CB12CA12C37E0880C991CAA1CBB1C64
:102810003A95D1F713962C91139730E050E040E0B1
:10282000EEE0220F331F441F551FEA95D1F7822A8D
:10283000932AA42AB52A11962C9114012501222A43
:10284000A20191010E94251ED60112962D933D935F
:102850004D935C931597711003C011950195110963
:10286000780117FF04C0EE24FF24E01AF10A1016C5
:1028700011060CF04DC081E090E0F6019183808359
:1028800004E010E02AE0A22EB12CE114F10409F4D6
:1028900077C90E94A003F60146885788608C718C26
:1028A0009B01AC0124193509460957094280538020
:1028B00064807580241535054605570530F3668B11
:1028C000778B808F918F8285938520813181213014
:1028D000310529F5019693878287268137818217F2
:1028E000930711F413861286B1E0EB1AF108F60192
:1028F0008285938520853185B5012530310509F024
:10290000B8010E94DF1EBC01C6010E94F803BDCFC2
:10291000012B09F4B5CFD6011D921C92B1CF892BA2
:1029200021F48681978193878287D6011A968D91AB
:102930009C911B9701971B969C938E931A97D4CFCB
:1029400082E392E0FDC98230A1F480917C039091F2
:102950007D03892B59F080EF0E94DD0082E70E9401
:10296000DD0085E00E94DD0080E0F4C98EE592E0A4
:10297000E7C983E992E0E4C984E04FEFC416D104CB
:10298000E104F10409F008F48FCD2596CCACDDAC60
:10299000EEACFFAC25978AE0F594E794D794C79402
:1029A0008A95D1F731E0C31AD108E108F10885E032
:1029B0007BCD68E478EE81E090E0A30192010E9473
:1029C000251E69017A0161E0C61AD108E108F10803
:1029D0008FEFC816D104E104F10411F00CF039CDE9
:1029E00084E0A7CC83E0AFEFCA16D104E104F10480
:1029F00009F00CF459CD62E17AE780E090E0A301A0
:102A000092010E94251E69017A01F1E0CF1AD108D6
:102A1000E108F108112309F4AFCF86E02FEFC216C9
:102A2000D104E104F10409F008F483CC2596CCAC80
:102A3000DDACEEACFFAC25979AE0F594E794D79423
:102A4000C7949A95D1F7F1E0CF1AD108E108F108BF
:102A500087E06FCC1F920F920FB60F9211242F9325
:102A60003F934F935F936F937F938F939F93AF9316
:102A7000BF93EF93FF9380910F0490911004A09166
:102A80001104B0911204892B8A2B8B2BD1F19091D8
:102A90000E04E0910C04F0910D048081892780835D
:102AA00080910F0490911004A0911104B091120430
:102AB000181619061A061B069CF480910F049091B3
:102AC0001004A0911104B09112040197A109B10959
:102AD00080930F0490931004A0931104B0931204F8
:102AE000FF91EF91BF91AF919F918F917F916F91E6
:102AF0005F914F913F912F910F900FBE0F901F90BC
:102B00001895809100010E942303EACF1F920F9233
:102B10000FB60F9211242F933F934F935F936F93B0
:102B20007F938F939F93AF93BF93EF93FF9389EC22
:102B300094E00E941402FF91EF91BF91AF919F9199
:102B40008F917F916F915F914F913F912F910F9056
:102B50000FBE0F901F9018951F920F920FB60F92F5
:102B600011242F938F939F93EF93FF93E091D904B8
:102B7000F091DA048081E091DF04F091E00482FDBD
:102B80001BC090818091E2048F5F8F732091E304DA
:102B9000821741F0E091E204F0E0E753FB4F958F9C
:102BA0008093E204FF91EF919F918F912F910F906D
:102BB0000FBE0F901F9018958081F4CF1F920F9237
:102BC0000FB60F9211242F933F938F939F93AF9340
:102BD000BF938091290490912A04A0912B04B09175
:102BE0002C043091070423E0230F2D3758F501966C
:102BF000A11DB11D209307048093290490932A04FA
:102C0000A0932B04B0932C048091080490910904A4
:102C1000A0910A04B0910B040196A11DB11D8093EF
:102C2000080490930904A0930A04B0930B04BF9185
:102C3000AF919F918F913F912F910F900FBE0F9069
:102C40001F90189526E8230F0296A11DB11DD2CF23
:102C50001F920F920FB60F9211242F933F934F9311
:102C60005F936F937F938F939F93AF93BF93EF93F4
:102C7000FF938091B900887F803609F44AC0F0F54F
:102C8000883209F4A7C018F5803109F49BC0B8F464
:102C9000882309F4F9C0883009F494C0FF91EF91BA
:102CA000BF91AF919F918F917F916F915F914F9164
:102CB0003F912F910F900FBE0F901F901895883164
:102CC00009F488C0803251F78093A20414C0803484
:102CD00009F49DC040F48033B9F38833F9F680934A
:102CE000A20485ECB0C0803509F485C0883509F4AC
:102CF00096C0883499F60E94D606D0CF883909F458
:102D00008CC038F5883729F050F4883611F08037B8
:102D100029F683E08093A4041092060457C08838F3
:102D200009F47BC0803919F0803809F0B7CF809161
:102D30000604803208F071C0E091060481E08E0F35
:102D4000809306048091BB00F0E0EA51FC4F808341
:102D50003DC0803B39F0E0F4803A09F479C0883A0C
:102D600009F09CCF84E08093A4041092E3031092B6
:102D7000E203E091E003F091E10309958091E20321
:102D800081110FC081E08093E2031092C00309C05B
:102D9000803C09F4A6CF883C09F4A3CF883B09F016
:102DA0007DCFE091E30381E08E0F8093E303F0E0B9
:102DB000E054FC4F80818093BB009091E3038091AD
:102DC000E20329C080917F048093BB0085EC80934F
:102DD000BC0064CF9091A1048091A004981758F58D
:102DE000E091A10481E08E0F8093A104F0E0E0580F
:102DF000FB4F8081E9CFE091A10481E08E0F8093A9
:102E0000A1048091BB00F0E0E058FB4F80839091DB
:102E1000A1048091A0049817C8F285E8D8CFE0916A
:102E2000A10481E08E0F8093A1048091BB00F0E0AB
:102E3000E058FB4F80838091A30481115CCF81E037
:102E400080937E0484EA8093BC001092A40426CF71
:102E500085EC8093BC001092A4048091060480321B
:102E600030F4E0910604F0E0EA51FC4F10826091EA
:102E7000060470E0E091E403F091E50386EE93E050
:102E80000995109206040ACF1092A20434CF1F9223
:102E90000F920FB60F9211242F933F934F935F938E
:102EA0006F937F938F939F93AF93BF93CF93DF9352
:102EB000EF93FF9380919D03C0915606D0E087FF6A
:102EC00024C0109285001092840080919D038F5F32
:102ED00080939D0380919D03082E000C990B8C1705
:102EE0009D0724F480919D038C30C4F1809184006F
:102EF00090918500049680349C4908F47AC08091B2
:102F0000840090918500049676C080919D03082EE0
:102F1000000C990B8C179D07C4F6E0919D038E2F32
:102F2000EE0F990BFC01EE0FFF1FE80FF91FEE5C8F
:102F3000F94F808186FFC9CFE0919D038E2FEE0F60
:102F4000990BFC01EE0FFF1FE80FF91FEE5CF94F24
:102F5000808160E08F730E94F502B7CF20918400DA
:102F600030918500E0919D038E2FEE0F990BFC01AF
:102F7000EE0FFF1FE80FF91FEE5CF94F8181928180
:102F8000820F931F9093890080938800E0919D03A6
:102F90008E2FEE0F990BFC01EE0FFF1FE80FF91FAC
:102FA000EE5CF94F808186FF11C0E0919D038E2F6A
:102FB000EE0F990BFC01EE0FFF1FE80FF91FEE5CFF
:102FC000F94F808161E08F730E94F502FF91EF91CC
:102FD000DF91CF91BF91AF919F918F917F916F9131
:102FE0005F914F913F912F910F900FBE0F901F90C7
:102FF000189580E49CE990938900809388008FEF76
:1030000080939D03E3CF1092CC041092CB0448EE42
:1030100053E060E070E04093CD045093CE046093A1
:10302000CF047093D0048EE091E09093CA04809313
:10303000C90485EC90E09093D6048093D50484EC89
:1030400090E09093D8048093D70480EC90E0909324
:10305000DA048093D90481EC90E09093DC048093AF
:10306000DB0482EC90E09093DE048093DD0486EC38
:1030700090E09093E0048093DF041092E2041092B9
:10308000E3041092E4041092E50486E695E01092C1
:10309000A7051092A6059093AA058093A90520E4A0
:1030A00030E03093AC052093AB051092AD05109243
:1030B000AE051092B0051092AF051092B1051092B6
:1030C000B3051092B2051092B5051092B405109296
:1030D000B7051092B6051092B9051092B805109276
:1030E000BB051092BA051092BD051092BC05109256
:1030F000BF051092BE051092C5051092C40510922E
:10310000C7051092C6051092C9051092C805109205
:10311000CB051092CA051092D9051092D8051092CD
:10312000A8051092E6051092E8051092E70521E047
:10313000209325062DE830E03093CD052093CC0573
:1031400027E930E03093CF052093CE0521EA30E027
:103150003093D1052093D0052BEA30E03093D3058E
:103160002093D20525EB30E03093D5052093D4058C
:103170002FEB30E03093D7052093D60529EC30E0D3
:103180003093DB052093DA052AEC30E03093DD053F
:103190002093DC052FE536E03093DF052093DE0534
:1031A0009093C1058093C00523E336E03093E10599
:1031B0002093E0059093C3058093C20585ED90E0D0
:1031C0009093E3058093E205109229061092280659
:1031D00040932A0650932B0660932C0670932D067D
:1031E00080E291E09093270680932606E7E5F6E0DB
:1031F0002FEF48EB5BE0809156068C30B8F491E0FD
:10320000980F90935606808390E0DC01AA0FBB1FB5
:10321000A80FB91FAE5CB94F12965C934E931197ED
:10322000339686E0EB37F80731F708952083F8CF1F
:10323000789484B5826084BD84B5816084BD85B591
:10324000826085BD85B5816085BD80916E0081609D
:1032500080936E0010928100809181008260809343
:103260008100809181008160809381008091800045
:103270008160809380008091B10084608093B10070
:103280008091B00081608093B00080917A0084606A
:1032900080937A0080917A00826080937A00809196
:1032A0007A00816080937A0080917A0080688093B0
:1032B0007A001092C10084E18093E6058091E705D1
:1032C0009091E8050E949C1FC091E605D0E0CE01D8
:1032D00001960E94001F9093E8058093E705FC018A
:1032E000EC0FFD1F108212E0DC011C9325E011960B
:1032F0002C93AE014250510962E173E002960E94A4
:10330000F2208AEE98E090931E0480931D048EE3D1
:1033100098E090931C0480931B0481E198E09093C3
:103320001A04809319048FE59AE09093180480930F
:10333000170485E09BE0909316048093150488E0C1
:103340009AE0909314048093130484E99DE0909391
:10335000200480931F048EE79CE0909322048093C6
:103360002104E091D904F091DA041083E091D504AE
:10337000F091D6041082E091D704F091D80480E156
:1033800080831092E104E091DD04F091DE0486E098
:103390008083E091DB04F091DC0480818061808394
:1033A000E091DB04F091DC04808188608083E0910F
:1033B000DB04F091DC04808180688083E091DB0491
:1033C000F091DC0480818F7D8083809125068111BE
:1033D0004FC061E08DE00E944F0362ED70E080E03D
:1033E00090E00E94C50361E08DE00E94F50268E272
:1033F00070E080E090E00E94C50360E08DE00E94F4
:10340000F50262ED70E080E090E00E94C50361E0AB
:103410008DE00E94F50268E270E080E090E00E949A
:10342000C50360E08DE00E94F5026AEF70E080E085
:1034300090E00E94C503C5E062ED70E080E090E09E
:103440000E94C50361E08DE00E94F50268E270E031
:1034500080E090E00E94C50360E08DE00E94F502EC
:10346000C15051F76DE770E080E090E00E94C50325
:1034700089EC94E09093E5058093E4059093A7058B
:103480008093A6050E947E0C23E0222E312C33E28D
:10349000432E512C48E3642E712C50E0C52E50E091
:1034A000D52E62E0A62EB12C88248394912C809195
:1034B0002604882349F069B18091230468236C7F36
:1034C00040E080E00E941D0A80912704882379F063
:1034D00063B186B16F73B0E48B9FC0011124682B78
:1034E00080912404682340E081E00E941D0A8091BD
:1034F0002804882359F066B1809125048F70669561
:103500006695682340E082E00E941D0A8091E405F0
:103510009091E505DC01ED91FC910084F185E02DB1
:103520000995892B09F4CAC18091E4059091E505BC
:10353000DC01ED91FC910284F385E02D09958F3F2C
:10354000980721F3282F3091B105332309F491C056
:10355000873F09F07EC01092B105A091A905B091F6
:10356000AA056C916137C1F1693709F05CC0E0913F
:10357000DE05F091DF05309749F28091B205909118
:10358000B3058330910560F430E020E050E040E086
:1035900070E060E08091C0059091C1050995B6CFBB
:1035A000BD016D5F7F4F03970E947701BC016D5F86
:1035B0007F4F80E00E944701E091A905F091AA05A4
:1035C0009F012D5F3F4F428150E0618170E0E091AB
:1035D000DE05F091DF05DECF8091DA059091DB0505
:1035E000892B09F493CFBD016F5F7F4F8091B205A6
:1035F0009091B30501970E947701BC016F5F7F4FE7
:1036000080E00E9447016091A9057091AA056F5F53
:103610007F4FE091DA05F091DB058091C60590912E
:10362000C705099573CFE091DC05F091DD05309772
:1036300009F46CCF9D012F5F3F4F4091B20550912F
:10364000B305415051098091C8059091C90509956C
:103650005DCF6091B2057091B3050E9447018091E2
:10366000B2059091B30501969093B3058093B2058E
:103670004DCF6091AF057091B0056115710509F4EA
:10368000AEC087FDACC0615071097093B005609306
:10369000AF050E9447018091AF059091B005892B3D
:1036A00009F034CF8091AD05882309F42FCF803DF8
:1036B00009F481C040F4803941F1803C09F467C0CD
:1036C0001092AD0523CF843FD1F1853F09F44BC063
:1036D000803EB1F7E091CC05F091CD05309781F3B4
:1036E000A091A905B091AA054C9120E8429FA001A4
:1036F000112411968C91480F511D6091AE05809157
:10370000B4059091B5050995DBCFE091CE05F09118
:10371000CF053097A9F2A091A905B091AA054C91C7
:1037200080E8489FA001112411968C91480F511DEB
:103730006091AE058091B6059091B705E4CFE09118
:10374000D405F091D505309709F4BACFA091A90519
:10375000B091AA054C9150E011966C918091BC05F6
:103760009091BD05D0CFE091D605F091D705309767
:1037700009F4A6CFA091A905B091AA054C9150E0FB
:1037800011966C918091BE059091BF05BCCFE091E0
:10379000D005F091D105309709F492CFA091A905F9
:1037A000B091AA054C9150E06091AE058091B805AA
:1037B0009091B905A8CFE091D205F091D30530974B
:1037C00009F47ECFA091A905B091AA054C9150E0D3
:1037D0006091AE058091BA059091BB0594CF203FD2
:1037E00030F4982F9F709093AE05282F207F203FB4
:1037F000F1F190F4203CB1F150F4203909F086CE7B
:10380000B092B005A092AF052093AD057FCE203DCC
:1038100049F1203EA9F37ACE293F09F443C028F4A8
:103820008CE0820F823060F371CE2F3F09F06ECEB4
:103830001092B0051092AF051092AD051092AE0532
:1038400090E080E02091AB053091AC0582179307A2
:10385000B0F4E091A905F091AA05E80FF91F1082D4
:103860000196F0CF9092B0058092AF05CDCFA1E048
:10387000A093B1051092B3051092B20547CE1092F5
:10388000B1051092B3051092B205E091E205F091F6
:10389000E3058091CA059091CB05309709F436CEA7
:1038A000099534CEE091E005F091E105309709F4F7
:1038B0002DCE8091C2059091C305F2CF8FB7F894B9
:1038C0000091290410912A0420912B0430912C049A
:1038D0008FBF40917A0450917B0460917C04709179
:1038E0007D048091020190910301B0E0A0E0041BEF
:1038F000150B260B370B80179107A207B30708F0AB
:1039000057C1840F951FA61FB71F80937A04909309
:103910007B04A0937C04B0937D0480917804909103
:1039200079049C012F5F3F4F3093790420937804F2
:103930002091760430917704281739070CF0B2C033
:103940001092790410927804E0907404F090750459
:10395000E114F10409F4A6C00091720410917304FB
:10396000F801EE0FFF1FEA59FB4FC081D1818A8118
:10397000882321F061E088810E944F0360E0888104
:103980000E94F502C1010197F1F761E088810E9470
:10399000F502C2010197F1F760E088810E94F5020B
:1039A0008A81882321F060E088810E944F030E9471
:1039B000A0036B837C838D839E8389810E94CC02CC
:1039C000892B99F40E94A0032B813C814D815E815B
:1039D000621B730B840B950B2F81388549855A85A3
:1039E000261737074807590740F70E94A0036B8343
:1039F0007C838D839E8389810E94CC02892B99F0E0
:103A00000E94A0032B813C814D815E81621B730B60
:103A1000840B950B2F81388549855A8526173707E2
:103A20004807590740F70E94A0032B813C814D8134
:103A30005E8100936504B1E0EB1AF1080E151F05D5
:103A40000CF072C00F5F1F4F109373040093720449
:103A5000CB01821B930BB3010E94CB1E862F8F7765
:103A600080936404660F672F661F770B71956093D0
:103A7000630480EF0E94DD0083E60E94DD00E09198
:103A80006504F0E0E35AFB4F80810E94DD008091E5
:103A900064040E94DD00809163040E94DD0087EFD2
:103AA0000E94DD00C6E6D5E012EF1630C8F4FE0134
:103AB000ED57FF4F8081823099F480915B049091A3
:103AC0005C04012E02C0959587950A94E2F780FF69
:103AD00007C0812F0E948B03BC01812F0E948605A5
:103AE0001F5F2196163009F78091010187FD21C0E3
:103AF000C0E02C2F30E080910101082E000C990BC2
:103B000082179307B4F085E0829FF001839FF00D48
:103B10001124ED5CFB4F618172812481438180819E
:103B20000E94E20CCF5FE5CF1092730410927204F2
:103B30008FCF8091310490913204892B09F438C0E1
:103B40008FB7F8944091290450912A0460912B0476
:103B500070912C048FBF80912D0490912E04A09120
:103B60002F04B0913004481B590B6A0B7B0B20913A
:103B7000310430913204A8EEB3E02A9FC0012B9F9C
:103B8000900D3A9F900D1124B0E0A0E084179507A6
:103B9000A607B70768F40E947E0C88E198E00FB68C
:103BA000F894A895809360000FBE90936000FFCFBB
:103BB000C114D10409F47BCC0E940002882309F4CB
:103BC00076CC0E94000073CCBB272A3051F4992395
:103BD00042F4BDE290958095709561957F4F8F4F2F
:103BE0009F4F0C94F41DBB27FA01A62F6217710595
:103BF00081059105330B30FB66F0AA27660F771F0E
:103C0000881F991FAA1FA21710F0A21B6395385096
:103C1000A9F7A05DAA3308F0A95DA19336F7B11109
:103C2000B1931082CA010C94151EDC01FC01672FB0
:103C300071917723E1F7329704C07C916D93708383
:103C40006291AE17BF07C8F30895052E97FB1EF4C7
:103C500000940E943C1E57FD07D00E948E1E07FC58
:103C600003D04EF40C943C1E509540953095219510
:103C70003F4F4F4F5F4F0895909580957095619598
:103C80007F4F8F4F9F4F08950E94B01EA59F900DAC
:103C9000B49F900DA49F800D911D11240895B7FF2E
:103CA0000C94441E0E94441E821B930B08952F9275
:103CB0003F924F925F926F927F928F929F92AF92BC
:103CC000BF92CF92DF92EF92FF920F931F93CF9309
:103CD000DF93CDB7DEB7CA1BDB0B0FB6F894DEBFA0
:103CE0000FBECDBF09942A88398848885F846E84C6
:103CF0007D848C849B84AA84B984C884DF80EE8010
:103D0000FD800C811B81AA81B981CE0FD11D0FB618
:103D1000F894DEBF0FBECDBFED010895A1E21A2ECB
:103D2000AA1BBB1BFD010DC0AA1FBB1FEE1FFF1F5F
:103D3000A217B307E407F50720F0A21BB30BE40BAF
:103D4000F50B661F771F881F991F1A9469F76095F6
:103D50007095809590959B01AC01BD01CF010895B0
:103D6000A29FB001B39FC001A39F700D811D1124BC
:103D7000911DB29F700D811D1124911D0895991BF5
:103D800079E004C0991F961708F0961B881F7A9552
:103D9000C9F780950895AA1BBB1B51E107C0AA1F54
:103DA000BB1FA617B70710F0A61BB70B881F991FDC
:103DB0005A95A9F780959095BC01CD01089597FB80
:103DC000072E16F4009407D077FD09D00E94CB1E71
:103DD00007FC05D03EF4909581959F4F089570950E
:103DE00061957F4F0895EE0FFF1F0590F491E02D30
:103DF00009940E94B01EB7FF0895821B930B08958B
:103E00000F931F93CF93DF938230910510F482E0DC
:103E100090E0E0917D06F0917E0630E020E0B0E099
:103E2000A0E0309799F42115310509F44AC0281B08
:103E3000390B24303105D8F58A819B8161157105D4
:103E400089F1FB0193838283FE0111C0408151817E
:103E50000281138148175907E0F04817590799F470
:103E6000109761F012960C93129713961C9332964A
:103E7000CF01DF91CF911F910F91089500937D069F
:103E800010937E06F4CF2115310551F042175307E8
:103E900038F0A901DB019A01BD01DF01F801C1CFB2
:103EA000EF01F9CF90937E0680937D06CDCFFE0182
:103EB000E20FF31F819391932250310939832883B4
:103EC000D7CF20917B0630917C06232B41F42091A3
:103ED00006013091070130937C0620937B062091E8
:103EE0000401309105012115310541F42DB73EB78C
:103EF0004091080150910901241B350BE0917B068C
:103F0000F0917C06E217F307A0F42E1B3F0B281755
:103F1000390778F0AC014E5F5F4F2417350748F042
:103F20004E0F5F1F50937C0640937B0681939193C5
:103F30009FCFF0E0E0E09CCFCF93DF930097E9F0D4
:103F4000FC01329713821282A0917D06B0917E0609
:103F5000ED0130E020E01097A1F420813181820F43
:103F6000931F20917B0630917C062817390709F0B2
:103F700061C0F0937C06E0937B06DF91CF910895BA
:103F8000EA01CE17DF07E8F54A815B819E01411502
:103F90005105B1F7E901FB83EA8349915991C40FB7
:103FA000D51FEC17FD0761F4808191810296840F83
:103FB000951FE90199838883828193819B838A83FA
:103FC000F0E0E0E012968D919C9113970097B9F57F
:103FD0002D913C911197CD010296820F931F209154
:103FE0007B0630917C062817390739F6309751F552
:103FF00010927E0610927D06B0937C06A0937B06FD
:10400000BCCFD383C28340815181840F951FC817D1
:10401000D90761F44E5F5F4F88819981480F591F1E
:10402000518340838A819B8193838283211531054B
:1040300009F0B0CFF0937E06E0937D069ECFFD01A0
:10404000DC01C0CF13821282D7CFB0E0A0E0EBE258
:10405000F0E20C94591E8C01009751F4CB010E94A0
:10406000001F8C01C801CDB7DEB7E0E10C94751ECE
:10407000FC01E60FF71F9C0122503109E217F307FC
:1040800008F49DC0D901CD91DC911197C617D707CF
:1040900098F0C530D10530F3CE0104978617970705
:1040A00008F3C61BD70B2297C193D1936D937C93D2
:1040B000CF010E949C1FD6CF5B01AC1ABD0A4C01F8
:1040C0008C0E9D1EA0917D06B0917E06512C412C38
:1040D000F12CE12C109731F580917B0690917C06B4
:1040E0008815990509F05CC04616570608F058C0B7
:1040F0008091040190910501009741F48DB79EB71E
:104100004091080150910901841B950BE817F907AC
:1041100008F055C0F0937C06E0937B06F9017183AB
:104120006083A0CF8D919C91119712966C901297FD
:1041300013967C901397A815B90559F56C0142E0C8
:10414000C40ED11CCA14DB0420F1AC014A195B096E
:10415000DA011296159780F0628273825183408350
:10416000D9016D937C93E114F10471F0D70113969A
:10417000FC93EE93129776CF22968C0F9D1FF90138
:1041800091838083F301EFCFF0937E06E0937D0669
:1041900069CF4816590608F42C017D01D3019ACF46
:1041A000CB010E94001F7C01009749F0AE01B801CD
:1041B0000E94E220C8010E949C1F870153CF10E09B
:1041C00000E050CFFB01DC0102C001900D92415094
:1041D0005040D8F70895FB01DC0101900D920020BA
:1041E000E1F70895FB01DC014150504048F0019097
:1041F0000D920020C9F701C01D9241505040E0F7D8
:064200000895F894FFCFC1
:10420600FFFF130000007F0680000000000036025A
:104216009601C3018302F401D201E6010000000009
:10422600600733078F0709072C0719070A074D612F
:104236007820736572766F73206174746163686544
:104246006400556E6B6E6F776E2070696E206D6FB1
:104256006465004932433A20546F6F206D616E7970
:10426600206279746573207265636569766564009A
:104276004932433A20546F6F20666577206279741D
:1042860065732072656365697665640031302D62F9
:1042960069742061646472657373696E67206E6FFA
:1042A6007420737570706F7274656400746F6F201C
:1042B6006D616E7920717565726965730050494E3E
:1042C600475F434F4E464947204572726F723A2008
:1042D6004578636565646564206E756D62657220F8
:1042E6006F6620737570706F727465642070696E86
:1042F600672064657669636573005354455050457D
:104306005220434F4E464947204572726F723A20FB
:1043160057726F6E67204E756D626572206F6620EC
:10432600617267756D656E74730061726763203DB7
:10433600200053544550504552204F504552415449
:1043460045204572726F723A204D4F544F52204E9F
:104356004F5420434F4E4649475552454400535407
:104366004550504552204649524D574152452056D8
:10437600455253494F4E204572726F723A204E4F46
:10438600204D4F544F525320434F4E4649475552A6
:104396004544005354455050455220434F4E4649DC
:1043A60047204572726F723A20554E4B4E4F574E0C
:1043B600205354455050455220434F4D4D414E4495
:1043C60000433A5C436F6D70696C6174696F6E206F
:1043D600736F6674776172655C41726475696E6F3E
:1043E6005C6C69627261726965735C4669726D6163
:1043F6007461457870726573735C6578616D706C15
:1044060065735C4669726D61746145787072657337
:10441600735C4669726D6174614578707265737319
:064426002E696E6F00001C
:00000001FF
